{
  "contractName": "Gallery",
  "abi": [
    {
      "inputs": [
        {
          "internalType": "string",
          "name": "tokenName",
          "type": "string"
        },
        {
          "internalType": "string",
          "name": "symbol",
          "type": "string"
        },
        {
          "internalType": "string",
          "name": "baseUri",
          "type": "string"
        }
      ],
      "stateMutability": "nonpayable",
      "type": "constructor",
      "signature": "constructor"
    },
    {
      "anonymous": false,
      "inputs": [
        {
          "indexed": true,
          "internalType": "address",
          "name": "owner",
          "type": "address"
        },
        {
          "indexed": true,
          "internalType": "address",
          "name": "approved",
          "type": "address"
        },
        {
          "indexed": true,
          "internalType": "uint256",
          "name": "tokenId",
          "type": "uint256"
        }
      ],
      "name": "Approval",
      "type": "event",
      "signature": "0x8c5be1e5ebec7d5bd14f71427d1e84f3dd0314c0f7b2291e5b200ac8c7c3b925"
    },
    {
      "anonymous": false,
      "inputs": [
        {
          "indexed": true,
          "internalType": "address",
          "name": "owner",
          "type": "address"
        },
        {
          "indexed": true,
          "internalType": "address",
          "name": "operator",
          "type": "address"
        },
        {
          "indexed": false,
          "internalType": "bool",
          "name": "approved",
          "type": "bool"
        }
      ],
      "name": "ApprovalForAll",
      "type": "event",
      "signature": "0x17307eab39ab6107e8899845ad3d59bd9653f200f220920489ca2b5937696c31"
    },
    {
      "anonymous": false,
      "inputs": [
        {
          "indexed": false,
          "internalType": "address",
          "name": "account",
          "type": "address"
        }
      ],
      "name": "Paused",
      "type": "event",
      "signature": "0x62e78cea01bee320cd4e420270b5ea74000d11b0c9f74754ebdbfc544b05a258"
    },
    {
      "anonymous": false,
      "inputs": [
        {
          "indexed": true,
          "internalType": "uint256",
          "name": "tokenId",
          "type": "uint256"
        },
        {
          "indexed": false,
          "internalType": "string",
          "name": "metadataURI",
          "type": "string"
        },
        {
          "indexed": false,
          "internalType": "uint256",
          "name": "timestamp",
          "type": "uint256"
        }
      ],
      "name": "PhotoUploaded",
      "type": "event",
      "signature": "0xcb75cf07b380aae2b4ecf6a5ac4e13c8f7b3a261d351d8fcbf15d2ff82e7f3db"
    },
    {
      "anonymous": false,
      "inputs": [
        {
          "indexed": true,
          "internalType": "bytes32",
          "name": "role",
          "type": "bytes32"
        },
        {
          "indexed": true,
          "internalType": "bytes32",
          "name": "previousAdminRole",
          "type": "bytes32"
        },
        {
          "indexed": true,
          "internalType": "bytes32",
          "name": "newAdminRole",
          "type": "bytes32"
        }
      ],
      "name": "RoleAdminChanged",
      "type": "event",
      "signature": "0xbd79b86ffe0ab8e8776151514217cd7cacd52c909f66475c3af44e129f0b00ff"
    },
    {
      "anonymous": false,
      "inputs": [
        {
          "indexed": true,
          "internalType": "bytes32",
          "name": "role",
          "type": "bytes32"
        },
        {
          "indexed": true,
          "internalType": "address",
          "name": "account",
          "type": "address"
        },
        {
          "indexed": true,
          "internalType": "address",
          "name": "sender",
          "type": "address"
        }
      ],
      "name": "RoleGranted",
      "type": "event",
      "signature": "0x2f8788117e7eff1d82e926ec794901d17c78024a50270940304540a733656f0d"
    },
    {
      "anonymous": false,
      "inputs": [
        {
          "indexed": true,
          "internalType": "bytes32",
          "name": "role",
          "type": "bytes32"
        },
        {
          "indexed": true,
          "internalType": "address",
          "name": "account",
          "type": "address"
        },
        {
          "indexed": true,
          "internalType": "address",
          "name": "sender",
          "type": "address"
        }
      ],
      "name": "RoleRevoked",
      "type": "event",
      "signature": "0xf6391f5c32d9c69d2a47ea670b442974b53935d1edc7fd64eb21e047a839171b"
    },
    {
      "anonymous": false,
      "inputs": [
        {
          "indexed": true,
          "internalType": "address",
          "name": "from",
          "type": "address"
        },
        {
          "indexed": true,
          "internalType": "address",
          "name": "to",
          "type": "address"
        },
        {
          "indexed": true,
          "internalType": "uint256",
          "name": "tokenId",
          "type": "uint256"
        }
      ],
      "name": "Transfer",
      "type": "event",
      "signature": "0xddf252ad1be2c89b69c2b068fc378daa952ba7f163c4a11628f55a4df523b3ef"
    },
    {
      "anonymous": false,
      "inputs": [
        {
          "indexed": false,
          "internalType": "address",
          "name": "account",
          "type": "address"
        }
      ],
      "name": "Unpaused",
      "type": "event",
      "signature": "0x5db9ee0a495bf2e6ff9c91a7834c1ba4fdd244a5e8aa4e537bd38aeae4b073aa"
    },
    {
      "inputs": [],
      "name": "DEFAULT_ADMIN_ROLE",
      "outputs": [
        {
          "internalType": "bytes32",
          "name": "",
          "type": "bytes32"
        }
      ],
      "stateMutability": "view",
      "type": "function",
      "constant": true,
      "signature": "0xa217fddf"
    },
    {
      "inputs": [
        {
          "internalType": "address",
          "name": "to",
          "type": "address"
        },
        {
          "internalType": "uint256",
          "name": "tokenId",
          "type": "uint256"
        }
      ],
      "name": "approve",
      "outputs": [],
      "stateMutability": "nonpayable",
      "type": "function",
      "signature": "0x095ea7b3"
    },
    {
      "inputs": [
        {
          "internalType": "address",
          "name": "owner",
          "type": "address"
        }
      ],
      "name": "balanceOf",
      "outputs": [
        {
          "internalType": "uint256",
          "name": "",
          "type": "uint256"
        }
      ],
      "stateMutability": "view",
      "type": "function",
      "constant": true,
      "signature": "0x70a08231"
    },
    {
      "inputs": [
        {
          "internalType": "uint256",
          "name": "tokenId",
          "type": "uint256"
        }
      ],
      "name": "getApproved",
      "outputs": [
        {
          "internalType": "address",
          "name": "",
          "type": "address"
        }
      ],
      "stateMutability": "view",
      "type": "function",
      "constant": true,
      "signature": "0x081812fc"
    },
    {
      "inputs": [
        {
          "internalType": "bytes32",
          "name": "role",
          "type": "bytes32"
        }
      ],
      "name": "getRoleAdmin",
      "outputs": [
        {
          "internalType": "bytes32",
          "name": "",
          "type": "bytes32"
        }
      ],
      "stateMutability": "view",
      "type": "function",
      "constant": true,
      "signature": "0x248a9ca3"
    },
    {
      "inputs": [
        {
          "internalType": "bytes32",
          "name": "role",
          "type": "bytes32"
        },
        {
          "internalType": "uint256",
          "name": "index",
          "type": "uint256"
        }
      ],
      "name": "getRoleMember",
      "outputs": [
        {
          "internalType": "address",
          "name": "",
          "type": "address"
        }
      ],
      "stateMutability": "view",
      "type": "function",
      "constant": true,
      "signature": "0x9010d07c"
    },
    {
      "inputs": [
        {
          "internalType": "bytes32",
          "name": "role",
          "type": "bytes32"
        }
      ],
      "name": "getRoleMemberCount",
      "outputs": [
        {
          "internalType": "uint256",
          "name": "",
          "type": "uint256"
        }
      ],
      "stateMutability": "view",
      "type": "function",
      "constant": true,
      "signature": "0xca15c873"
    },
    {
      "inputs": [
        {
          "internalType": "bytes32",
          "name": "role",
          "type": "bytes32"
        },
        {
          "internalType": "address",
          "name": "account",
          "type": "address"
        }
      ],
      "name": "grantRole",
      "outputs": [],
      "stateMutability": "nonpayable",
      "type": "function",
      "signature": "0x2f2ff15d"
    },
    {
      "inputs": [
        {
          "internalType": "bytes32",
          "name": "role",
          "type": "bytes32"
        },
        {
          "internalType": "address",
          "name": "account",
          "type": "address"
        }
      ],
      "name": "hasRole",
      "outputs": [
        {
          "internalType": "bool",
          "name": "",
          "type": "bool"
        }
      ],
      "stateMutability": "view",
      "type": "function",
      "constant": true,
      "signature": "0x91d14854"
    },
    {
      "inputs": [
        {
          "internalType": "address",
          "name": "owner",
          "type": "address"
        },
        {
          "internalType": "address",
          "name": "operator",
          "type": "address"
        }
      ],
      "name": "isApprovedForAll",
      "outputs": [
        {
          "internalType": "bool",
          "name": "",
          "type": "bool"
        }
      ],
      "stateMutability": "view",
      "type": "function",
      "constant": true,
      "signature": "0xe985e9c5"
    },
    {
      "inputs": [],
      "name": "name",
      "outputs": [
        {
          "internalType": "string",
          "name": "",
          "type": "string"
        }
      ],
      "stateMutability": "view",
      "type": "function",
      "constant": true,
      "signature": "0x06fdde03"
    },
    {
      "inputs": [
        {
          "internalType": "uint256",
          "name": "tokenId",
          "type": "uint256"
        }
      ],
      "name": "ownerOf",
      "outputs": [
        {
          "internalType": "address",
          "name": "",
          "type": "address"
        }
      ],
      "stateMutability": "view",
      "type": "function",
      "constant": true,
      "signature": "0x6352211e"
    },
    {
      "inputs": [],
      "name": "paused",
      "outputs": [
        {
          "internalType": "bool",
          "name": "",
          "type": "bool"
        }
      ],
      "stateMutability": "view",
      "type": "function",
      "constant": true,
      "signature": "0x5c975abb"
    },
    {
      "inputs": [
        {
          "internalType": "bytes32",
          "name": "role",
          "type": "bytes32"
        },
        {
          "internalType": "address",
          "name": "account",
          "type": "address"
        }
      ],
      "name": "renounceRole",
      "outputs": [],
      "stateMutability": "nonpayable",
      "type": "function",
      "signature": "0x36568abe"
    },
    {
      "inputs": [
        {
          "internalType": "bytes32",
          "name": "role",
          "type": "bytes32"
        },
        {
          "internalType": "address",
          "name": "account",
          "type": "address"
        }
      ],
      "name": "revokeRole",
      "outputs": [],
      "stateMutability": "nonpayable",
      "type": "function",
      "signature": "0xd547741f"
    },
    {
      "inputs": [
        {
          "internalType": "address",
          "name": "from",
          "type": "address"
        },
        {
          "internalType": "address",
          "name": "to",
          "type": "address"
        },
        {
          "internalType": "uint256",
          "name": "tokenId",
          "type": "uint256"
        }
      ],
      "name": "safeTransferFrom",
      "outputs": [],
      "stateMutability": "nonpayable",
      "type": "function",
      "signature": "0x42842e0e"
    },
    {
      "inputs": [
        {
          "internalType": "address",
          "name": "from",
          "type": "address"
        },
        {
          "internalType": "address",
          "name": "to",
          "type": "address"
        },
        {
          "internalType": "uint256",
          "name": "tokenId",
          "type": "uint256"
        },
        {
          "internalType": "bytes",
          "name": "_data",
          "type": "bytes"
        }
      ],
      "name": "safeTransferFrom",
      "outputs": [],
      "stateMutability": "nonpayable",
      "type": "function",
      "signature": "0xb88d4fde"
    },
    {
      "inputs": [
        {
          "internalType": "address",
          "name": "operator",
          "type": "address"
        },
        {
          "internalType": "bool",
          "name": "approved",
          "type": "bool"
        }
      ],
      "name": "setApprovalForAll",
      "outputs": [],
      "stateMutability": "nonpayable",
      "type": "function",
      "signature": "0xa22cb465"
    },
    {
      "inputs": [],
      "name": "symbol",
      "outputs": [
        {
          "internalType": "string",
          "name": "",
          "type": "string"
        }
      ],
      "stateMutability": "view",
      "type": "function",
      "constant": true,
      "signature": "0x95d89b41"
    },
    {
      "inputs": [
        {
          "internalType": "uint256",
          "name": "index",
          "type": "uint256"
        }
      ],
      "name": "tokenByIndex",
      "outputs": [
        {
          "internalType": "uint256",
          "name": "",
          "type": "uint256"
        }
      ],
      "stateMutability": "view",
      "type": "function",
      "constant": true,
      "signature": "0x4f6ccce7"
    },
    {
      "inputs": [
        {
          "internalType": "address",
          "name": "owner",
          "type": "address"
        },
        {
          "internalType": "uint256",
          "name": "index",
          "type": "uint256"
        }
      ],
      "name": "tokenOfOwnerByIndex",
      "outputs": [
        {
          "internalType": "uint256",
          "name": "",
          "type": "uint256"
        }
      ],
      "stateMutability": "view",
      "type": "function",
      "constant": true,
      "signature": "0x2f745c59"
    },
    {
      "inputs": [],
      "name": "totalSupply",
      "outputs": [
        {
          "internalType": "uint256",
          "name": "",
          "type": "uint256"
        }
      ],
      "stateMutability": "view",
      "type": "function",
      "constant": true,
      "signature": "0x18160ddd"
    },
    {
      "inputs": [
        {
          "internalType": "address",
          "name": "from",
          "type": "address"
        },
        {
          "internalType": "address",
          "name": "to",
          "type": "address"
        },
        {
          "internalType": "uint256",
          "name": "tokenId",
          "type": "uint256"
        }
      ],
      "name": "transferFrom",
      "outputs": [],
      "stateMutability": "nonpayable",
      "type": "function",
      "signature": "0x23b872dd"
    },
    {
      "inputs": [
        {
          "internalType": "uint256",
          "name": "tokenId",
          "type": "uint256"
        }
      ],
      "name": "tokenURI",
      "outputs": [
        {
          "internalType": "string",
          "name": "",
          "type": "string"
        }
      ],
      "stateMutability": "view",
      "type": "function",
      "constant": true,
      "signature": "0xc87b56dd"
    },
    {
      "inputs": [
        {
          "internalType": "address",
          "name": "owner",
          "type": "address"
        },
        {
          "internalType": "string",
          "name": "metadataURI",
          "type": "string"
        }
      ],
      "name": "uploadPhoto",
      "outputs": [
        {
          "internalType": "uint256",
          "name": "",
          "type": "uint256"
        }
      ],
      "stateMutability": "nonpayable",
      "type": "function",
      "signature": "0xf371a1ce"
    },
    {
      "inputs": [],
      "name": "getTotalPhotoCount",
      "outputs": [
        {
          "internalType": "uint256",
          "name": "",
          "type": "uint256"
        }
      ],
      "stateMutability": "view",
      "type": "function",
      "constant": true,
      "signature": "0x70dc232a"
    },
    {
      "inputs": [
        {
          "internalType": "uint256",
          "name": "tokenId",
          "type": "uint256"
        }
      ],
      "name": "getPhoto",
      "outputs": [
        {
          "internalType": "uint256",
          "name": "",
          "type": "uint256"
        },
        {
          "internalType": "address[]",
          "name": "",
          "type": "address[]"
        },
        {
          "internalType": "string",
          "name": "",
          "type": "string"
        },
        {
          "internalType": "uint256",
          "name": "",
          "type": "uint256"
        }
      ],
      "stateMutability": "view",
      "type": "function",
      "constant": true,
      "signature": "0xb6be128a"
    },
    {
      "inputs": [
        {
          "internalType": "bytes4",
          "name": "interfaceId",
          "type": "bytes4"
        }
      ],
      "name": "supportsInterface",
      "outputs": [
        {
          "internalType": "bool",
          "name": "",
          "type": "bool"
        }
      ],
      "stateMutability": "view",
      "type": "function",
      "constant": true,
      "signature": "0x01ffc9a7"
    }
  ],
  "bytecode": "0x60806040523480156200001157600080fd5b50604051620049bd380380620049bd8339818101604052810190620000379190620002f7565b8282816000908051906020019062000051929190620000aa565b5080600190805190602001906200006a929190620000aa565b5050506000600a60006101000a81548160ff02191690831515021790555080600e9080519060200190620000a0929190620000aa565b5050505062000414565b828054620000b890620003df565b90600052602060002090601f016020900481019282620000dc576000855562000128565b82601f10620000f757805160ff191683800117855562000128565b8280016001018555821562000128579182015b82811115620001275782518255916020019190600101906200010a565b5b5090506200013791906200013b565b5090565b5b80821115620001565760008160009055506001016200013c565b5090565b6000604051905090565b600080fd5b600080fd5b600080fd5b600080fd5b6000601f19601f8301169050919050565b7f4e487b7100000000000000000000000000000000000000000000000000000000600052604160045260246000fd5b620001c38262000178565b810181811067ffffffffffffffff82111715620001e557620001e462000189565b5b80604052505050565b6000620001fa6200015a565b9050620002088282620001b8565b919050565b600067ffffffffffffffff8211156200022b576200022a62000189565b5b620002368262000178565b9050602081019050919050565b60005b838110156200026357808201518184015260208101905062000246565b8381111562000273576000848401525b50505050565b6000620002906200028a846200020d565b620001ee565b905082815260208101848484011115620002af57620002ae62000173565b5b620002bc84828562000243565b509392505050565b600082601f830112620002dc57620002db6200016e565b5b8151620002ee84826020860162000279565b91505092915050565b60008060006060848603121562000313576200031262000164565b5b600084015167ffffffffffffffff81111562000334576200033362000169565b5b6200034286828701620002c4565b935050602084015167ffffffffffffffff81111562000366576200036562000169565b5b6200037486828701620002c4565b925050604084015167ffffffffffffffff81111562000398576200039762000169565b5b620003a686828701620002c4565b9150509250925092565b7f4e487b7100000000000000000000000000000000000000000000000000000000600052602260045260246000fd5b60006002820490506001821680620003f857607f821691505b6020821081036200040e576200040d620003b0565b5b50919050565b61459980620004246000396000f3fe608060405234801561001057600080fd5b50600436106101c45760003560e01c806370a08231116100f9578063b6be128a11610097578063ca15c87311610071578063ca15c87314610554578063d547741f14610584578063e985e9c5146105a0578063f371a1ce146105d0576101c4565b8063b6be128a146104d5578063b88d4fde14610508578063c87b56dd14610524576101c4565b806391d14854116100d357806391d148541461044d57806395d89b411461047d578063a217fddf1461049b578063a22cb465146104b9576101c4565b806370a08231146103cf57806370dc232a146103ff5780639010d07c1461041d576101c4565b80632f2ff15d1161016657806342842e0e1161014057806342842e0e146103355780634f6ccce7146103515780635c975abb146103815780636352211e1461039f576101c4565b80632f2ff15d146102cd5780632f745c59146102e957806336568abe14610319576101c4565b8063095ea7b3116101a2578063095ea7b31461024757806318160ddd1461026357806323b872dd14610281578063248a9ca31461029d576101c4565b806301ffc9a7146101c957806306fdde03146101f9578063081812fc14610217575b600080fd5b6101e360048036038101906101de9190612d74565b610600565b6040516101f09190612dbc565b60405180910390f35b610201610612565b60405161020e9190612e70565b60405180910390f35b610231600480360381019061022c9190612ec8565b6106a4565b60405161023e9190612f36565b60405180910390f35b610261600480360381019061025c9190612f7d565b610729565b005b61026b610840565b6040516102789190612fcc565b60405180910390f35b61029b60048036038101906102969190612fe7565b61084d565b005b6102b760048036038101906102b29190613070565b6108ad565b6040516102c491906130ac565b60405180910390f35b6102e760048036038101906102e291906130c7565b6108cd565b005b61030360048036038101906102fe9190612f7d565b6108ee565b6040516103109190612fcc565b60405180910390f35b610333600480360381019061032e91906130c7565b610993565b005b61034f600480360381019061034a9190612fe7565b610a16565b005b61036b60048036038101906103669190612ec8565b610a36565b6040516103789190612fcc565b60405180910390f35b610389610aa7565b6040516103969190612dbc565b60405180910390f35b6103b960048036038101906103b49190612ec8565b610abe565b6040516103c69190612f36565b60405180910390f35b6103e960048036038101906103e49190613107565b610b6f565b6040516103f69190612fcc565b60405180910390f35b610407610c26565b6040516104149190612fcc565b60405180910390f35b61043760048036038101906104329190613134565b610c35565b6040516104449190612f36565b60405180910390f35b610467600480360381019061046291906130c7565b610c64565b6040516104749190612dbc565b60405180910390f35b610485610ccf565b6040516104929190612e70565b60405180910390f35b6104a3610d61565b6040516104b091906130ac565b60405180910390f35b6104d360048036038101906104ce91906131a0565b610d68565b005b6104ef60048036038101906104ea9190612ec8565b610d7e565b6040516104ff949392919061329e565b60405180910390f35b610522600480360381019061051d9190613426565b610f5a565b005b61053e60048036038101906105399190612ec8565b610fbc565b60405161054b9190612e70565b60405180910390f35b61056e60048036038101906105699190613070565b611070565b60405161057b9190612fcc565b60405180910390f35b61059e600480360381019061059991906130c7565b611094565b005b6105ba60048036038101906105b591906134a9565b6110b5565b6040516105c79190612dbc565b60405180910390f35b6105ea60048036038101906105e5919061358a565b611149565b6040516105f79190612fcc565b60405180910390f35b600061060b826112bf565b9050919050565b60606000805461062190613615565b80601f016020809104026020016040519081016040528092919081815260200182805461064d90613615565b801561069a5780601f1061066f5761010080835404028352916020019161069a565b820191906000526020600020905b81548152906001019060200180831161067d57829003601f168201915b5050505050905090565b60006106af82611339565b6106ee576040517f08c379a00000000000000000000000000000000000000000000000000000000081526004016106e5906136b8565b60405180910390fd5b6004600083815260200190815260200160002060009054906101000a900473ffffffffffffffffffffffffffffffffffffffff169050919050565b600061073482610abe565b90508073ffffffffffffffffffffffffffffffffffffffff168373ffffffffffffffffffffffffffffffffffffffff16036107a4576040517f08c379a000000000000000000000000000000000000000000000000000000000815260040161079b9061374a565b60405180910390fd5b8073ffffffffffffffffffffffffffffffffffffffff166107c36113a5565b73ffffffffffffffffffffffffffffffffffffffff1614806107f257506107f1816107ec6113a5565b6110b5565b5b610831576040517f08c379a0000000000000000000000000000000000000000000000000000000008152600401610828906137dc565b60405180910390fd5b61083b83836113ad565b505050565b6000600880549050905090565b61085e6108586113a5565b82611466565b61089d576040517f08c379a00000000000000000000000000000000000000000000000000000000081526004016108949061386e565b60405180910390fd5b6108a8838383611544565b505050565b6000600b6000838152602001908152602001600020600101549050919050565b6108d6826108ad565b6108df816117aa565b6108e983836117be565b505050565b60006108f983610b6f565b821061093a576040517f08c379a000000000000000000000000000000000000000000000000000000000815260040161093190613900565b60405180910390fd5b600660008473ffffffffffffffffffffffffffffffffffffffff1673ffffffffffffffffffffffffffffffffffffffff168152602001908152602001600020600083815260200190815260200160002054905092915050565b61099b6113a5565b73ffffffffffffffffffffffffffffffffffffffff168173ffffffffffffffffffffffffffffffffffffffff1614610a08576040517f08c379a00000000000000000000000000000000000000000000000000000000081526004016109ff90613992565b60405180910390fd5b610a1282826117f2565b5050565b610a3183838360405180602001604052806000815250610f5a565b505050565b6000610a40610840565b8210610a81576040517f08c379a0000000000000000000000000000000000000000000000000000000008152600401610a7890613a24565b60405180910390fd5b60088281548110610a9557610a94613a44565b5b90600052602060002001549050919050565b6000600a60009054906101000a900460ff16905090565b6000806002600084815260200190815260200160002060009054906101000a900473ffffffffffffffffffffffffffffffffffffffff169050600073ffffffffffffffffffffffffffffffffffffffff168173ffffffffffffffffffffffffffffffffffffffff1603610b66576040517f08c379a0000000000000000000000000000000000000000000000000000000008152600401610b5d90613ae5565b60405180910390fd5b80915050919050565b60008073ffffffffffffffffffffffffffffffffffffffff168273ffffffffffffffffffffffffffffffffffffffff1603610bdf576040517f08c379a0000000000000000000000000000000000000000000000000000000008152600401610bd690613b77565b60405180910390fd5b600360008373ffffffffffffffffffffffffffffffffffffffff1673ffffffffffffffffffffffffffffffffffffffff168152602001908152602001600020549050919050565b6000610c30610840565b905090565b6000610c5c82600c600086815260200190815260200160002061182690919063ffffffff16565b905092915050565b6000600b600084815260200190815260200160002060000160008373ffffffffffffffffffffffffffffffffffffffff1673ffffffffffffffffffffffffffffffffffffffff16815260200190815260200160002060009054906101000a900460ff16905092915050565b606060018054610cde90613615565b80601f0160208091040260200160405190810160405280929190818152602001828054610d0a90613615565b8015610d575780601f10610d2c57610100808354040283529160200191610d57565b820191906000526020600020905b815481529060010190602001808311610d3a57829003601f168201915b5050505050905090565b6000801b81565b610d7a610d736113a5565b8383611840565b5050565b6000606080600080600d60008781526020019081526020016000206000015403610ddd576040517f08c379a0000000000000000000000000000000000000000000000000000000008152600401610dd490613be3565b60405180910390fd5b600d600086815260200190815260200160002060000154600d6000878152602001908152602001600020600101600d6000888152602001908152602001600020600201600d60008981526020019081526020016000206003015482805480602002602001604051908101604052809291908181526020018280548015610eb857602002820191906000526020600020905b8160009054906101000a900473ffffffffffffffffffffffffffffffffffffffff1673ffffffffffffffffffffffffffffffffffffffff1681526020019060010190808311610e6e575b50505050509250818054610ecb90613615565b80601f0160208091040260200160405190810160405280929190818152602001828054610ef790613615565b8015610f445780601f10610f1957610100808354040283529160200191610f44565b820191906000526020600020905b815481529060010190602001808311610f2757829003601f168201915b5050505050915093509350935093509193509193565b610f6b610f656113a5565b83611466565b610faa576040517f08c379a0000000000000000000000000000000000000000000000000000000008152600401610fa19061386e565b60405180910390fd5b610fb6848484846119ac565b50505050565b6060610fc782611339565b611006576040517f08c379a0000000000000000000000000000000000000000000000000000000008152600401610ffd90613c75565b60405180910390fd5b6000611010611a08565b905060008151116110305760405180602001604052806000815250611068565b80600d6000858152602001908152602001600020600201604051602001611058929190613d65565b6040516020818303038152906040525b915050919050565b600061108d600c6000848152602001908152602001600020611a9a565b9050919050565b61109d826108ad565b6110a6816117aa565b6110b083836117f2565b505050565b6000600560008473ffffffffffffffffffffffffffffffffffffffff1673ffffffffffffffffffffffffffffffffffffffff16815260200190815260200160002060008373ffffffffffffffffffffffffffffffffffffffff1673ffffffffffffffffffffffffffffffffffffffff16815260200190815260200160002060009054906101000a900460ff16905092915050565b6000806001611156610840565b6111609190613db8565b905061116c3382611aaf565b61117581610fbc565b5060606000604051806080016040528084815260200183815260200186815260200142815250905080600d60008581526020019081526020016000206000820151816000015560208201518160010190805190602001906111d7929190612bdb565b5060408201518160020190805190602001906111f4929190612c65565b5060608201518160030155905050600d6000848152602001908152602001600020600101339080600181540180825580915050600190039060005260206000200160009091909190916101000a81548173ffffffffffffffffffffffffffffffffffffffff021916908373ffffffffffffffffffffffffffffffffffffffff160217905550827fcb75cf07b380aae2b4ecf6a5ac4e13c8f7b3a261d351d8fcbf15d2ff82e7f3db86426040516112ab929190613e0e565b60405180910390a282935050505092915050565b60007f5a05180f000000000000000000000000000000000000000000000000000000007bffffffffffffffffffffffffffffffffffffffffffffffffffffffff1916827bffffffffffffffffffffffffffffffffffffffffffffffffffffffff19161480611332575061133182611c88565b5b9050919050565b60008073ffffffffffffffffffffffffffffffffffffffff166002600084815260200190815260200160002060009054906101000a900473ffffffffffffffffffffffffffffffffffffffff1673ffffffffffffffffffffffffffffffffffffffff1614159050919050565b600033905090565b816004600083815260200190815260200160002060006101000a81548173ffffffffffffffffffffffffffffffffffffffff021916908373ffffffffffffffffffffffffffffffffffffffff160217905550808273ffffffffffffffffffffffffffffffffffffffff1661142083610abe565b73ffffffffffffffffffffffffffffffffffffffff167f8c5be1e5ebec7d5bd14f71427d1e84f3dd0314c0f7b2291e5b200ac8c7c3b92560405160405180910390a45050565b600061147182611339565b6114b0576040517f08c379a00000000000000000000000000000000000000000000000000000000081526004016114a790613eb0565b60405180910390fd5b60006114bb83610abe565b90508073ffffffffffffffffffffffffffffffffffffffff168473ffffffffffffffffffffffffffffffffffffffff1614806114fd57506114fc81856110b5565b5b8061153b57508373ffffffffffffffffffffffffffffffffffffffff16611523846106a4565b73ffffffffffffffffffffffffffffffffffffffff16145b91505092915050565b8273ffffffffffffffffffffffffffffffffffffffff1661156482610abe565b73ffffffffffffffffffffffffffffffffffffffff16146115ba576040517f08c379a00000000000000000000000000000000000000000000000000000000081526004016115b190613f42565b60405180910390fd5b600073ffffffffffffffffffffffffffffffffffffffff168273ffffffffffffffffffffffffffffffffffffffff1603611629576040517f08c379a000000000000000000000000000000000000000000000000000000000815260040161162090613fd4565b60405180910390fd5b611634838383611d02565b61163f6000826113ad565b6001600360008573ffffffffffffffffffffffffffffffffffffffff1673ffffffffffffffffffffffffffffffffffffffff168152602001908152602001600020600082825461168f9190613ff4565b925050819055506001600360008473ffffffffffffffffffffffffffffffffffffffff1673ffffffffffffffffffffffffffffffffffffffff16815260200190815260200160002060008282546116e69190613db8565b92505081905550816002600083815260200190815260200160002060006101000a81548173ffffffffffffffffffffffffffffffffffffffff021916908373ffffffffffffffffffffffffffffffffffffffff160217905550808273ffffffffffffffffffffffffffffffffffffffff168473ffffffffffffffffffffffffffffffffffffffff167fddf252ad1be2c89b69c2b068fc378daa952ba7f163c4a11628f55a4df523b3ef60405160405180910390a46117a5838383611d12565b505050565b6117bb816117b66113a5565b611d17565b50565b6117c88282611db4565b6117ed81600c6000858152602001908152602001600020611e9590919063ffffffff16565b505050565b6117fc8282611ec5565b61182181600c6000858152602001908152602001600020611fa790919063ffffffff16565b505050565b60006118358360000183611fd7565b60001c905092915050565b8173ffffffffffffffffffffffffffffffffffffffff168373ffffffffffffffffffffffffffffffffffffffff16036118ae576040517f08c379a00000000000000000000000000000000000000000000000000000000081526004016118a590614074565b60405180910390fd5b80600560008573ffffffffffffffffffffffffffffffffffffffff1673ffffffffffffffffffffffffffffffffffffffff16815260200190815260200160002060008473ffffffffffffffffffffffffffffffffffffffff1673ffffffffffffffffffffffffffffffffffffffff16815260200190815260200160002060006101000a81548160ff0219169083151502179055508173ffffffffffffffffffffffffffffffffffffffff168373ffffffffffffffffffffffffffffffffffffffff167f17307eab39ab6107e8899845ad3d59bd9653f200f220920489ca2b5937696c318360405161199f9190612dbc565b60405180910390a3505050565b6119b7848484611544565b6119c384848484612002565b611a02576040517f08c379a00000000000000000000000000000000000000000000000000000000081526004016119f990614106565b60405180910390fd5b50505050565b6060600e8054611a1790613615565b80601f0160208091040260200160405190810160405280929190818152602001828054611a4390613615565b8015611a905780601f10611a6557610100808354040283529160200191611a90565b820191906000526020600020905b815481529060010190602001808311611a7357829003601f168201915b5050505050905090565b6000611aa882600001612189565b9050919050565b600073ffffffffffffffffffffffffffffffffffffffff168273ffffffffffffffffffffffffffffffffffffffff1603611b1e576040517f08c379a0000000000000000000000000000000000000000000000000000000008152600401611b1590614172565b60405180910390fd5b611b2781611339565b15611b67576040517f08c379a0000000000000000000000000000000000000000000000000000000008152600401611b5e906141de565b60405180910390fd5b611b7360008383611d02565b6001600360008473ffffffffffffffffffffffffffffffffffffffff1673ffffffffffffffffffffffffffffffffffffffff1681526020019081526020016000206000828254611bc39190613db8565b92505081905550816002600083815260200190815260200160002060006101000a81548173ffffffffffffffffffffffffffffffffffffffff021916908373ffffffffffffffffffffffffffffffffffffffff160217905550808273ffffffffffffffffffffffffffffffffffffffff16600073ffffffffffffffffffffffffffffffffffffffff167fddf252ad1be2c89b69c2b068fc378daa952ba7f163c4a11628f55a4df523b3ef60405160405180910390a4611c8460008383611d12565b5050565b60007f7965db0b000000000000000000000000000000000000000000000000000000007bffffffffffffffffffffffffffffffffffffffffffffffffffffffff1916827bffffffffffffffffffffffffffffffffffffffffffffffffffffffff19161480611cfb5750611cfa8261219a565b5b9050919050565b611d0d838383612214565b505050565b505050565b611d218282610c64565b611db057611d468173ffffffffffffffffffffffffffffffffffffffff16601461226c565b611d548360001c602061226c565b604051602001611d65929190614296565b6040516020818303038152906040526040517f08c379a0000000000000000000000000000000000000000000000000000000008152600401611da79190612e70565b60405180910390fd5b5050565b611dbe8282610c64565b611e91576001600b600084815260200190815260200160002060000160008373ffffffffffffffffffffffffffffffffffffffff1673ffffffffffffffffffffffffffffffffffffffff16815260200190815260200160002060006101000a81548160ff021916908315150217905550611e366113a5565b73ffffffffffffffffffffffffffffffffffffffff168173ffffffffffffffffffffffffffffffffffffffff16837f2f8788117e7eff1d82e926ec794901d17c78024a50270940304540a733656f0d60405160405180910390a45b5050565b6000611ebd836000018373ffffffffffffffffffffffffffffffffffffffff1660001b6124a8565b905092915050565b611ecf8282610c64565b15611fa3576000600b600084815260200190815260200160002060000160008373ffffffffffffffffffffffffffffffffffffffff1673ffffffffffffffffffffffffffffffffffffffff16815260200190815260200160002060006101000a81548160ff021916908315150217905550611f486113a5565b73ffffffffffffffffffffffffffffffffffffffff168173ffffffffffffffffffffffffffffffffffffffff16837ff6391f5c32d9c69d2a47ea670b442974b53935d1edc7fd64eb21e047a839171b60405160405180910390a45b5050565b6000611fcf836000018373ffffffffffffffffffffffffffffffffffffffff1660001b612518565b905092915050565b6000826000018281548110611fef57611fee613a44565b5b9060005260206000200154905092915050565b60006120238473ffffffffffffffffffffffffffffffffffffffff1661262c565b1561217c578373ffffffffffffffffffffffffffffffffffffffff1663150b7a0261204c6113a5565b8786866040518563ffffffff1660e01b815260040161206e9493929190614325565b6020604051808303816000875af19250505080156120aa57506040513d601f19601f820116820180604052508101906120a79190614386565b60015b61212c573d80600081146120da576040519150601f19603f3d011682016040523d82523d6000602084013e6120df565b606091505b506000815103612124576040517f08c379a000000000000000000000000000000000000000000000000000000000815260040161211b90614106565b60405180910390fd5b805181602001fd5b63150b7a0260e01b7bffffffffffffffffffffffffffffffffffffffffffffffffffffffff1916817bffffffffffffffffffffffffffffffffffffffffffffffffffffffff191614915050612181565b600190505b949350505050565b600081600001805490509050919050565b60007f780e9d63000000000000000000000000000000000000000000000000000000007bffffffffffffffffffffffffffffffffffffffffffffffffffffffff1916827bffffffffffffffffffffffffffffffffffffffffffffffffffffffff1916148061220d575061220c8261264f565b5b9050919050565b61221f838383612731565b612227610aa7565b15612267576040517f08c379a000000000000000000000000000000000000000000000000000000000815260040161225e90614425565b60405180910390fd5b505050565b60606000600283600261227f9190614445565b6122899190613db8565b67ffffffffffffffff8111156122a2576122a16132fb565b5b6040519080825280601f01601f1916602001820160405280156122d45781602001600182028036833780820191505090505b5090507f30000000000000000000000000000000000000000000000000000000000000008160008151811061230c5761230b613a44565b5b60200101907effffffffffffffffffffffffffffffffffffffffffffffffffffffffffffff1916908160001a9053507f7800000000000000000000000000000000000000000000000000000000000000816001815181106123705761236f613a44565b5b60200101907effffffffffffffffffffffffffffffffffffffffffffffffffffffffffffff1916908160001a905350600060018460026123b09190614445565b6123ba9190613db8565b90505b600181111561245a577f3031323334353637383961626364656600000000000000000000000000000000600f8616601081106123fc576123fb613a44565b5b1a60f81b82828151811061241357612412613a44565b5b60200101907effffffffffffffffffffffffffffffffffffffffffffffffffffffffffffff1916908160001a905350600485901c9450806124539061449f565b90506123bd565b506000841461249e576040517f08c379a000000000000000000000000000000000000000000000000000000000815260040161249590614514565b60405180910390fd5b8091505092915050565b60006124b48383612843565b61250d578260000182908060018154018082558091505060019003906000526020600020016000909190919091505582600001805490508360010160008481526020019081526020016000208190555060019050612512565b600090505b92915050565b6000808360010160008481526020019081526020016000205490506000811461262057600060018261254a9190613ff4565b90506000600186600001805490506125629190613ff4565b90508181146125d157600086600001828154811061258357612582613a44565b5b90600052602060002001549050808760000184815481106125a7576125a6613a44565b5b90600052602060002001819055508387600101600083815260200190815260200160002081905550505b856000018054806125e5576125e4614534565b5b600190038181906000526020600020016000905590558560010160008681526020019081526020016000206000905560019350505050612626565b60009150505b92915050565b6000808273ffffffffffffffffffffffffffffffffffffffff163b119050919050565b60007f80ac58cd000000000000000000000000000000000000000000000000000000007bffffffffffffffffffffffffffffffffffffffffffffffffffffffff1916827bffffffffffffffffffffffffffffffffffffffffffffffffffffffff1916148061271a57507f5b5e139f000000000000000000000000000000000000000000000000000000007bffffffffffffffffffffffffffffffffffffffffffffffffffffffff1916827bffffffffffffffffffffffffffffffffffffffffffffffffffffffff1916145b8061272a575061272982612866565b5b9050919050565b61273c8383836128d0565b600073ffffffffffffffffffffffffffffffffffffffff168373ffffffffffffffffffffffffffffffffffffffff160361277e57612779816128d5565b6127bd565b8173ffffffffffffffffffffffffffffffffffffffff168373ffffffffffffffffffffffffffffffffffffffff16146127bc576127bb838261291e565b5b5b600073ffffffffffffffffffffffffffffffffffffffff168273ffffffffffffffffffffffffffffffffffffffff16036127ff576127fa81612a8b565b61283e565b8273ffffffffffffffffffffffffffffffffffffffff168273ffffffffffffffffffffffffffffffffffffffff161461283d5761283c8282612b5c565b5b5b505050565b600080836001016000848152602001908152602001600020541415905092915050565b60007f01ffc9a7000000000000000000000000000000000000000000000000000000007bffffffffffffffffffffffffffffffffffffffffffffffffffffffff1916827bffffffffffffffffffffffffffffffffffffffffffffffffffffffff1916149050919050565b505050565b6008805490506009600083815260200190815260200160002081905550600881908060018154018082558091505060019003906000526020600020016000909190919091505550565b6000600161292b84610b6f565b6129359190613ff4565b9050600060076000848152602001908152602001600020549050818114612a1a576000600660008673ffffffffffffffffffffffffffffffffffffffff1673ffffffffffffffffffffffffffffffffffffffff168152602001908152602001600020600084815260200190815260200160002054905080600660008773ffffffffffffffffffffffffffffffffffffffff1673ffffffffffffffffffffffffffffffffffffffff168152602001908152602001600020600084815260200190815260200160002081905550816007600083815260200190815260200160002081905550505b6007600084815260200190815260200160002060009055600660008573ffffffffffffffffffffffffffffffffffffffff1673ffffffffffffffffffffffffffffffffffffffff16815260200190815260200160002060008381526020019081526020016000206000905550505050565b60006001600880549050612a9f9190613ff4565b9050600060096000848152602001908152602001600020549050600060088381548110612acf57612ace613a44565b5b906000526020600020015490508060088381548110612af157612af0613a44565b5b906000526020600020018190555081600960008381526020019081526020016000208190555060096000858152602001908152602001600020600090556008805480612b4057612b3f614534565b5b6001900381819060005260206000200160009055905550505050565b6000612b6783610b6f565b905081600660008573ffffffffffffffffffffffffffffffffffffffff1673ffffffffffffffffffffffffffffffffffffffff168152602001908152602001600020600083815260200190815260200160002081905550806007600084815260200190815260200160002081905550505050565b828054828255906000526020600020908101928215612c54579160200282015b82811115612c535782518260006101000a81548173ffffffffffffffffffffffffffffffffffffffff021916908373ffffffffffffffffffffffffffffffffffffffff16021790555091602001919060010190612bfb565b5b509050612c619190612ceb565b5090565b828054612c7190613615565b90600052602060002090601f016020900481019282612c935760008555612cda565b82601f10612cac57805160ff1916838001178555612cda565b82800160010185558215612cda579182015b82811115612cd9578251825591602001919060010190612cbe565b5b509050612ce79190612ceb565b5090565b5b80821115612d04576000816000905550600101612cec565b5090565b6000604051905090565b600080fd5b600080fd5b60007fffffffff0000000000000000000000000000000000000000000000000000000082169050919050565b612d5181612d1c565b8114612d5c57600080fd5b50565b600081359050612d6e81612d48565b92915050565b600060208284031215612d8a57612d89612d12565b5b6000612d9884828501612d5f565b91505092915050565b60008115159050919050565b612db681612da1565b82525050565b6000602082019050612dd16000830184612dad565b92915050565b600081519050919050565b600082825260208201905092915050565b60005b83811015612e11578082015181840152602081019050612df6565b83811115612e20576000848401525b50505050565b6000601f19601f8301169050919050565b6000612e4282612dd7565b612e4c8185612de2565b9350612e5c818560208601612df3565b612e6581612e26565b840191505092915050565b60006020820190508181036000830152612e8a8184612e37565b905092915050565b6000819050919050565b612ea581612e92565b8114612eb057600080fd5b50565b600081359050612ec281612e9c565b92915050565b600060208284031215612ede57612edd612d12565b5b6000612eec84828501612eb3565b91505092915050565b600073ffffffffffffffffffffffffffffffffffffffff82169050919050565b6000612f2082612ef5565b9050919050565b612f3081612f15565b82525050565b6000602082019050612f4b6000830184612f27565b92915050565b612f5a81612f15565b8114612f6557600080fd5b50565b600081359050612f7781612f51565b92915050565b60008060408385031215612f9457612f93612d12565b5b6000612fa285828601612f68565b9250506020612fb385828601612eb3565b9150509250929050565b612fc681612e92565b82525050565b6000602082019050612fe16000830184612fbd565b92915050565b60008060006060848603121561300057612fff612d12565b5b600061300e86828701612f68565b935050602061301f86828701612f68565b925050604061303086828701612eb3565b9150509250925092565b6000819050919050565b61304d8161303a565b811461305857600080fd5b50565b60008135905061306a81613044565b92915050565b60006020828403121561308657613085612d12565b5b60006130948482850161305b565b91505092915050565b6130a68161303a565b82525050565b60006020820190506130c1600083018461309d565b92915050565b600080604083850312156130de576130dd612d12565b5b60006130ec8582860161305b565b92505060206130fd85828601612f68565b9150509250929050565b60006020828403121561311d5761311c612d12565b5b600061312b84828501612f68565b91505092915050565b6000806040838503121561314b5761314a612d12565b5b60006131598582860161305b565b925050602061316a85828601612eb3565b9150509250929050565b61317d81612da1565b811461318857600080fd5b50565b60008135905061319a81613174565b92915050565b600080604083850312156131b7576131b6612d12565b5b60006131c585828601612f68565b92505060206131d68582860161318b565b9150509250929050565b600081519050919050565b600082825260208201905092915050565b6000819050602082019050919050565b61321581612f15565b82525050565b6000613227838361320c565b60208301905092915050565b6000602082019050919050565b600061324b826131e0565b61325581856131eb565b9350613260836131fc565b8060005b83811015613291578151613278888261321b565b975061328383613233565b925050600181019050613264565b5085935050505092915050565b60006080820190506132b36000830187612fbd565b81810360208301526132c58186613240565b905081810360408301526132d98185612e37565b90506132e86060830184612fbd565b95945050505050565b600080fd5b600080fd5b7f4e487b7100000000000000000000000000000000000000000000000000000000600052604160045260246000fd5b61333382612e26565b810181811067ffffffffffffffff82111715613352576133516132fb565b5b80604052505050565b6000613365612d08565b9050613371828261332a565b919050565b600067ffffffffffffffff821115613391576133906132fb565b5b61339a82612e26565b9050602081019050919050565b82818337600083830152505050565b60006133c96133c484613376565b61335b565b9050828152602081018484840111156133e5576133e46132f6565b5b6133f08482856133a7565b509392505050565b600082601f83011261340d5761340c6132f1565b5b813561341d8482602086016133b6565b91505092915050565b600080600080608085870312156134405761343f612d12565b5b600061344e87828801612f68565b945050602061345f87828801612f68565b935050604061347087828801612eb3565b925050606085013567ffffffffffffffff81111561349157613490612d17565b5b61349d878288016133f8565b91505092959194509250565b600080604083850312156134c0576134bf612d12565b5b60006134ce85828601612f68565b92505060206134df85828601612f68565b9150509250929050565b600067ffffffffffffffff821115613504576135036132fb565b5b61350d82612e26565b9050602081019050919050565b600061352d613528846134e9565b61335b565b905082815260208101848484011115613549576135486132f6565b5b6135548482856133a7565b509392505050565b600082601f830112613571576135706132f1565b5b813561358184826020860161351a565b91505092915050565b600080604083850312156135a1576135a0612d12565b5b60006135af85828601612f68565b925050602083013567ffffffffffffffff8111156135d0576135cf612d17565b5b6135dc8582860161355c565b9150509250929050565b7f4e487b7100000000000000000000000000000000000000000000000000000000600052602260045260246000fd5b6000600282049050600182168061362d57607f821691505b6020821081036136405761363f6135e6565b5b50919050565b7f4552433732313a20617070726f76656420717565727920666f72206e6f6e657860008201527f697374656e7420746f6b656e0000000000000000000000000000000000000000602082015250565b60006136a2602c83612de2565b91506136ad82613646565b604082019050919050565b600060208201905081810360008301526136d181613695565b9050919050565b7f4552433732313a20617070726f76616c20746f2063757272656e74206f776e6560008201527f7200000000000000000000000000000000000000000000000000000000000000602082015250565b6000613734602183612de2565b915061373f826136d8565b604082019050919050565b6000602082019050818103600083015261376381613727565b9050919050565b7f4552433732313a20617070726f76652063616c6c6572206973206e6f74206f7760008201527f6e6572206e6f7220617070726f76656420666f7220616c6c0000000000000000602082015250565b60006137c6603883612de2565b91506137d18261376a565b604082019050919050565b600060208201905081810360008301526137f5816137b9565b9050919050565b7f4552433732313a207472616e736665722063616c6c6572206973206e6f74206f60008201527f776e6572206e6f7220617070726f766564000000000000000000000000000000602082015250565b6000613858603183612de2565b9150613863826137fc565b604082019050919050565b600060208201905081810360008301526138878161384b565b9050919050565b7f455243373231456e756d657261626c653a206f776e657220696e646578206f7560008201527f74206f6620626f756e6473000000000000000000000000000000000000000000602082015250565b60006138ea602b83612de2565b91506138f58261388e565b604082019050919050565b60006020820190508181036000830152613919816138dd565b9050919050565b7f416363657373436f6e74726f6c3a2063616e206f6e6c792072656e6f756e636560008201527f20726f6c657320666f722073656c660000000000000000000000000000000000602082015250565b600061397c602f83612de2565b915061398782613920565b604082019050919050565b600060208201905081810360008301526139ab8161396f565b9050919050565b7f455243373231456e756d657261626c653a20676c6f62616c20696e646578206f60008201527f7574206f6620626f756e64730000000000000000000000000000000000000000602082015250565b6000613a0e602c83612de2565b9150613a19826139b2565b604082019050919050565b60006020820190508181036000830152613a3d81613a01565b9050919050565b7f4e487b7100000000000000000000000000000000000000000000000000000000600052603260045260246000fd5b7f4552433732313a206f776e657220717565727920666f72206e6f6e657869737460008201527f656e7420746f6b656e0000000000000000000000000000000000000000000000602082015250565b6000613acf602983612de2565b9150613ada82613a73565b604082019050919050565b60006020820190508181036000830152613afe81613ac2565b9050919050565b7f4552433732313a2062616c616e636520717565727920666f7220746865207a6560008201527f726f206164647265737300000000000000000000000000000000000000000000602082015250565b6000613b61602a83612de2565b9150613b6c82613b05565b604082019050919050565b60006020820190508181036000830152613b9081613b54565b9050919050565b7f50686f746f20646f6573206e6f74206578697374000000000000000000000000600082015250565b6000613bcd601483612de2565b9150613bd882613b97565b602082019050919050565b60006020820190508181036000830152613bfc81613bc0565b9050919050565b7f4465616457616c6b6572576561706f6e3a2055524920717565727920666f722060008201527f6e6f6e6578697374656e7420746f6b656e000000000000000000000000000000602082015250565b6000613c5f603183612de2565b9150613c6a82613c03565b604082019050919050565b60006020820190508181036000830152613c8e81613c52565b9050919050565b600081905092915050565b6000613cab82612dd7565b613cb58185613c95565b9350613cc5818560208601612df3565b80840191505092915050565b60008190508160005260206000209050919050565b60008154613cf381613615565b613cfd8186613c95565b94506001821660008114613d185760018114613d2957613d5c565b60ff19831686528186019350613d5c565b613d3285613cd1565b60005b83811015613d5457815481890152600182019150602081019050613d35565b838801955050505b50505092915050565b6000613d718285613ca0565b9150613d7d8284613ce6565b91508190509392505050565b7f4e487b7100000000000000000000000000000000000000000000000000000000600052601160045260246000fd5b6000613dc382612e92565b9150613dce83612e92565b9250827fffffffffffffffffffffffffffffffffffffffffffffffffffffffffffffffff03821115613e0357613e02613d89565b5b828201905092915050565b60006040820190508181036000830152613e288185612e37565b9050613e376020830184612fbd565b9392505050565b7f4552433732313a206f70657261746f7220717565727920666f72206e6f6e657860008201527f697374656e7420746f6b656e0000000000000000000000000000000000000000602082015250565b6000613e9a602c83612de2565b9150613ea582613e3e565b604082019050919050565b60006020820190508181036000830152613ec981613e8d565b9050919050565b7f4552433732313a207472616e736665722066726f6d20696e636f72726563742060008201527f6f776e6572000000000000000000000000000000000000000000000000000000602082015250565b6000613f2c602583612de2565b9150613f3782613ed0565b604082019050919050565b60006020820190508181036000830152613f5b81613f1f565b9050919050565b7f4552433732313a207472616e7366657220746f20746865207a65726f2061646460008201527f7265737300000000000000000000000000000000000000000000000000000000602082015250565b6000613fbe602483612de2565b9150613fc982613f62565b604082019050919050565b60006020820190508181036000830152613fed81613fb1565b9050919050565b6000613fff82612e92565b915061400a83612e92565b92508282101561401d5761401c613d89565b5b828203905092915050565b7f4552433732313a20617070726f766520746f2063616c6c657200000000000000600082015250565b600061405e601983612de2565b915061406982614028565b602082019050919050565b6000602082019050818103600083015261408d81614051565b9050919050565b7f4552433732313a207472616e7366657220746f206e6f6e20455243373231526560008201527f63656976657220696d706c656d656e7465720000000000000000000000000000602082015250565b60006140f0603283612de2565b91506140fb82614094565b604082019050919050565b6000602082019050818103600083015261411f816140e3565b9050919050565b7f4552433732313a206d696e7420746f20746865207a65726f2061646472657373600082015250565b600061415c602083612de2565b915061416782614126565b602082019050919050565b6000602082019050818103600083015261418b8161414f565b9050919050565b7f4552433732313a20746f6b656e20616c7265616479206d696e74656400000000600082015250565b60006141c8601c83612de2565b91506141d382614192565b602082019050919050565b600060208201905081810360008301526141f7816141bb565b9050919050565b7f416363657373436f6e74726f6c3a206163636f756e7420000000000000000000600082015250565b6000614234601783613c95565b915061423f826141fe565b601782019050919050565b7f206973206d697373696e6720726f6c6520000000000000000000000000000000600082015250565b6000614280601183613c95565b915061428b8261424a565b601182019050919050565b60006142a182614227565b91506142ad8285613ca0565b91506142b882614273565b91506142c48284613ca0565b91508190509392505050565b600081519050919050565b600082825260208201905092915050565b60006142f7826142d0565b61430181856142db565b9350614311818560208601612df3565b61431a81612e26565b840191505092915050565b600060808201905061433a6000830187612f27565b6143476020830186612f27565b6143546040830185612fbd565b818103606083015261436681846142ec565b905095945050505050565b60008151905061438081612d48565b92915050565b60006020828403121561439c5761439b612d12565b5b60006143aa84828501614371565b91505092915050565b7f4552433732315061757361626c653a20746f6b656e207472616e73666572207760008201527f68696c6520706175736564000000000000000000000000000000000000000000602082015250565b600061440f602b83612de2565b915061441a826143b3565b604082019050919050565b6000602082019050818103600083015261443e81614402565b9050919050565b600061445082612e92565b915061445b83612e92565b9250817fffffffffffffffffffffffffffffffffffffffffffffffffffffffffffffffff048311821515161561449457614493613d89565b5b828202905092915050565b60006144aa82612e92565b9150600082036144bd576144bc613d89565b5b600182039050919050565b7f537472696e67733a20686578206c656e67746820696e73756666696369656e74600082015250565b60006144fe602083612de2565b9150614509826144c8565b602082019050919050565b6000602082019050818103600083015261452d816144f1565b9050919050565b7f4e487b7100000000000000000000000000000000000000000000000000000000600052603160045260246000fdfea2646970667358221220f333d6cbe7c524fd132864c0d64058e180d1b20e3437da87ab10ab54f02840a764736f6c634300080d0033",
  "immutableReferences": {},
  "source": "pragma solidity ^0.8.13;\n\nimport \"@openzeppelin/contracts/token/ERC721/ERC721.sol\";\nimport \"@openzeppelin/contracts/token/ERC721/extensions/ERC721Enumerable.sol\";\nimport \"@openzeppelin/contracts/utils/Counters.sol\";\nimport \"@openzeppelin/contracts/access/AccessControlEnumerable.sol\";\nimport \"@openzeppelin/contracts/token/ERC721/extensions/ERC721Pausable.sol\";\n\n//import \"./ERC721/ERC721.sol\";\n//import \"./ERC721/ERC721Enumerable.sol\";\n\ncontract Gallery is ERC721, ERC721Enumerable, ERC721Pausable, AccessControlEnumerable {\n    event PhotoUploaded (uint indexed tokenId, string metadataURI, uint256 timestamp);\n\n    mapping(uint256 => PhotoData) private _photoList;\n\n    struct PhotoData {\n        uint256 tokenId;\n        address[] ownerHistory;\n        string metadataURI;\n        uint256 timestamp;\n    }\n\n    string private _baseUri;\n\n    constructor(string memory tokenName, string memory symbol, string memory baseUri) ERC721(tokenName, symbol) {\n        _baseUri = baseUri;\n    }\n\n    function tokenURI(uint256 tokenId) public view override returns (string memory) {\n        require(_exists(tokenId), \"DeadWalkerWeapon: URI query for nonexistent token\");\n\n        string memory baseURI = _baseURI();\n        return bytes(baseURI).length > 0 ? string(abi.encodePacked(baseURI, _photoList[tokenId].metadataURI)) : \"\";\n    }\n\n    function uploadPhoto(address owner, string memory metadataURI) public returns (uint256) {\n        uint256 tokenId = totalSupply() + 1;\n\n        _mint(msg.sender, tokenId);\n        tokenURI(tokenId);\n\n        address[] memory ownerHistory;\n\n        PhotoData memory newPhotoData = PhotoData({\n        tokenId: tokenId,\n        ownerHistory: ownerHistory,\n        metadataURI: metadataURI,\n        timestamp : block.timestamp\n        });\n\n        _photoList[tokenId] = newPhotoData;\n        _photoList[tokenId].ownerHistory.push(msg.sender);\n\n        emit PhotoUploaded(tokenId, metadataURI, block.timestamp);\n\n        return tokenId;\n    }\n\n//    function transferOwnership(uint256 tokenId, address to) public returns(uint, address, address, address) {\n//        safeTransferFrom(msg.sender, to, tokenId);\n//        uint ownerHistoryLength = _photoList[tokenId].ownerHistory.length;\n//        return (\n//        _photoList[tokenId].tokenId,\n//        _photoList[tokenId].ownerHistory[0],\n//        _photoList[tokenId].ownerHistory[ownerHistoryLength-2],\n//        _photoList[tokenId].ownerHistory[ownerHistoryLength-1]);\n//    }\n//\n//    function transferFrom(address from, address to, uint256 tokenId) public {\n//        super.transferFrom(from, to, tokenId);\n//        _photoList[tokenId].ownerHistory.push(to);\n//    }\n\n    function getTotalPhotoCount () public view returns (uint) {\n        return totalSupply();\n    }\n\n    function getPhoto(uint tokenId) public view returns(uint256, address[] memory, string memory, uint256) {\n        require(_photoList[tokenId].tokenId != 0, \"Photo does not exist\");\n        return (\n            _photoList[tokenId].tokenId,\n            _photoList[tokenId].ownerHistory,\n            _photoList[tokenId].metadataURI,\n            _photoList[tokenId].timestamp);\n    }\n\n    function _baseURI() internal view override returns (string memory) {\n        return _baseUri;\n    }\n\n    function _beforeTokenTransfer(\n        address from,\n        address to,\n        uint256 tokenId\n    ) internal override(ERC721, ERC721Enumerable, ERC721Pausable) {\n        super._beforeTokenTransfer(from, to, tokenId);\n    }\n\n    function supportsInterface(bytes4 interfaceId)\n    public\n    view\n    override(AccessControlEnumerable, ERC721, ERC721Enumerable)\n    returns (bool)\n    {\n        return super.supportsInterface(interfaceId);\n    }\n}",
  "sourcePath": "/Users/ellerhew/Desktop/coding/personal/gallery/contracts/Gallery.sol",
  "compiler": {
    "name": "solc",
    "version": "0.8.13+commit.abaa5c0e.Emscripten.clang"
  },
  "schemaVersion": "3.4.7",
  "updatedAt": "2022-06-24T08:37:44.983Z",
  "networkType": "ethereum",
  "devdoc": {
    "kind": "dev",
    "methods": {
      "approve(address,uint256)": {
        "details": "See {IERC721-approve}."
      },
      "balanceOf(address)": {
        "details": "See {IERC721-balanceOf}."
      },
      "getApproved(uint256)": {
        "details": "See {IERC721-getApproved}."
      },
      "getRoleAdmin(bytes32)": {
        "details": "Returns the admin role that controls `role`. See {grantRole} and {revokeRole}. To change a role's admin, use {_setRoleAdmin}."
      },
      "getRoleMember(bytes32,uint256)": {
        "details": "Returns one of the accounts that have `role`. `index` must be a value between 0 and {getRoleMemberCount}, non-inclusive. Role bearers are not sorted in any particular way, and their ordering may change at any point. WARNING: When using {getRoleMember} and {getRoleMemberCount}, make sure you perform all queries on the same block. See the following https://forum.openzeppelin.com/t/iterating-over-elements-on-enumerableset-in-openzeppelin-contracts/2296[forum post] for more information."
      },
      "getRoleMemberCount(bytes32)": {
        "details": "Returns the number of accounts that have `role`. Can be used together with {getRoleMember} to enumerate all bearers of a role."
      },
      "grantRole(bytes32,address)": {
        "details": "Grants `role` to `account`. If `account` had not been already granted `role`, emits a {RoleGranted} event. Requirements: - the caller must have ``role``'s admin role."
      },
      "hasRole(bytes32,address)": {
        "details": "Returns `true` if `account` has been granted `role`."
      },
      "isApprovedForAll(address,address)": {
        "details": "See {IERC721-isApprovedForAll}."
      },
      "name()": {
        "details": "See {IERC721Metadata-name}."
      },
      "ownerOf(uint256)": {
        "details": "See {IERC721-ownerOf}."
      },
      "paused()": {
        "details": "Returns true if the contract is paused, and false otherwise."
      },
      "renounceRole(bytes32,address)": {
        "details": "Revokes `role` from the calling account. Roles are often managed via {grantRole} and {revokeRole}: this function's purpose is to provide a mechanism for accounts to lose their privileges if they are compromised (such as when a trusted device is misplaced). If the calling account had been revoked `role`, emits a {RoleRevoked} event. Requirements: - the caller must be `account`."
      },
      "revokeRole(bytes32,address)": {
        "details": "Revokes `role` from `account`. If `account` had been granted `role`, emits a {RoleRevoked} event. Requirements: - the caller must have ``role``'s admin role."
      },
      "safeTransferFrom(address,address,uint256)": {
        "details": "See {IERC721-safeTransferFrom}."
      },
      "safeTransferFrom(address,address,uint256,bytes)": {
        "details": "See {IERC721-safeTransferFrom}."
      },
      "setApprovalForAll(address,bool)": {
        "details": "See {IERC721-setApprovalForAll}."
      },
      "symbol()": {
        "details": "See {IERC721Metadata-symbol}."
      },
      "tokenByIndex(uint256)": {
        "details": "See {IERC721Enumerable-tokenByIndex}."
      },
      "tokenOfOwnerByIndex(address,uint256)": {
        "details": "See {IERC721Enumerable-tokenOfOwnerByIndex}."
      },
      "tokenURI(uint256)": {
        "details": "See {IERC721Metadata-tokenURI}."
      },
      "totalSupply()": {
        "details": "See {IERC721Enumerable-totalSupply}."
      },
      "transferFrom(address,address,uint256)": {
        "details": "See {IERC721-transferFrom}."
      }
    },
    "version": 1
  },
  "userdoc": {
    "kind": "user",
    "methods": {},
    "version": 1
  }
}