{
  "contractName": "Gallery",
  "abi": [
    {
      "inputs": [
        {
          "internalType": "string",
          "name": "tokenName",
          "type": "string"
        },
        {
          "internalType": "string",
          "name": "symbol",
          "type": "string"
        },
        {
          "internalType": "string",
          "name": "baseUri",
          "type": "string"
        }
      ],
      "stateMutability": "nonpayable",
      "type": "constructor"
    },
    {
      "anonymous": false,
      "inputs": [
        {
          "indexed": true,
          "internalType": "address",
          "name": "owner",
          "type": "address"
        },
        {
          "indexed": true,
          "internalType": "address",
          "name": "approved",
          "type": "address"
        },
        {
          "indexed": true,
          "internalType": "uint256",
          "name": "tokenId",
          "type": "uint256"
        }
      ],
      "name": "Approval",
      "type": "event"
    },
    {
      "anonymous": false,
      "inputs": [
        {
          "indexed": true,
          "internalType": "address",
          "name": "owner",
          "type": "address"
        },
        {
          "indexed": true,
          "internalType": "address",
          "name": "operator",
          "type": "address"
        },
        {
          "indexed": false,
          "internalType": "bool",
          "name": "approved",
          "type": "bool"
        }
      ],
      "name": "ApprovalForAll",
      "type": "event"
    },
    {
      "anonymous": false,
      "inputs": [
        {
          "indexed": false,
          "internalType": "address",
          "name": "account",
          "type": "address"
        }
      ],
      "name": "Paused",
      "type": "event"
    },
    {
      "anonymous": false,
      "inputs": [
        {
          "indexed": true,
          "internalType": "uint256",
          "name": "tokenId",
          "type": "uint256"
        },
        {
          "indexed": false,
          "internalType": "string",
          "name": "metadataURI",
          "type": "string"
        },
        {
          "indexed": false,
          "internalType": "uint256",
          "name": "timestamp",
          "type": "uint256"
        }
      ],
      "name": "PhotoUploaded",
      "type": "event"
    },
    {
      "anonymous": false,
      "inputs": [
        {
          "indexed": true,
          "internalType": "bytes32",
          "name": "role",
          "type": "bytes32"
        },
        {
          "indexed": true,
          "internalType": "bytes32",
          "name": "previousAdminRole",
          "type": "bytes32"
        },
        {
          "indexed": true,
          "internalType": "bytes32",
          "name": "newAdminRole",
          "type": "bytes32"
        }
      ],
      "name": "RoleAdminChanged",
      "type": "event"
    },
    {
      "anonymous": false,
      "inputs": [
        {
          "indexed": true,
          "internalType": "bytes32",
          "name": "role",
          "type": "bytes32"
        },
        {
          "indexed": true,
          "internalType": "address",
          "name": "account",
          "type": "address"
        },
        {
          "indexed": true,
          "internalType": "address",
          "name": "sender",
          "type": "address"
        }
      ],
      "name": "RoleGranted",
      "type": "event"
    },
    {
      "anonymous": false,
      "inputs": [
        {
          "indexed": true,
          "internalType": "bytes32",
          "name": "role",
          "type": "bytes32"
        },
        {
          "indexed": true,
          "internalType": "address",
          "name": "account",
          "type": "address"
        },
        {
          "indexed": true,
          "internalType": "address",
          "name": "sender",
          "type": "address"
        }
      ],
      "name": "RoleRevoked",
      "type": "event"
    },
    {
      "anonymous": false,
      "inputs": [
        {
          "indexed": true,
          "internalType": "address",
          "name": "from",
          "type": "address"
        },
        {
          "indexed": true,
          "internalType": "address",
          "name": "to",
          "type": "address"
        },
        {
          "indexed": true,
          "internalType": "uint256",
          "name": "tokenId",
          "type": "uint256"
        }
      ],
      "name": "Transfer",
      "type": "event"
    },
    {
      "anonymous": false,
      "inputs": [
        {
          "indexed": false,
          "internalType": "address",
          "name": "account",
          "type": "address"
        }
      ],
      "name": "Unpaused",
      "type": "event"
    },
    {
      "inputs": [],
      "name": "DEFAULT_ADMIN_ROLE",
      "outputs": [
        {
          "internalType": "bytes32",
          "name": "",
          "type": "bytes32"
        }
      ],
      "stateMutability": "view",
      "type": "function",
      "constant": true
    },
    {
      "inputs": [
        {
          "internalType": "address",
          "name": "to",
          "type": "address"
        },
        {
          "internalType": "uint256",
          "name": "tokenId",
          "type": "uint256"
        }
      ],
      "name": "approve",
      "outputs": [],
      "stateMutability": "nonpayable",
      "type": "function"
    },
    {
      "inputs": [
        {
          "internalType": "address",
          "name": "owner",
          "type": "address"
        }
      ],
      "name": "balanceOf",
      "outputs": [
        {
          "internalType": "uint256",
          "name": "",
          "type": "uint256"
        }
      ],
      "stateMutability": "view",
      "type": "function",
      "constant": true
    },
    {
      "inputs": [
        {
          "internalType": "uint256",
          "name": "tokenId",
          "type": "uint256"
        }
      ],
      "name": "getApproved",
      "outputs": [
        {
          "internalType": "address",
          "name": "",
          "type": "address"
        }
      ],
      "stateMutability": "view",
      "type": "function",
      "constant": true
    },
    {
      "inputs": [
        {
          "internalType": "bytes32",
          "name": "role",
          "type": "bytes32"
        }
      ],
      "name": "getRoleAdmin",
      "outputs": [
        {
          "internalType": "bytes32",
          "name": "",
          "type": "bytes32"
        }
      ],
      "stateMutability": "view",
      "type": "function",
      "constant": true
    },
    {
      "inputs": [
        {
          "internalType": "bytes32",
          "name": "role",
          "type": "bytes32"
        },
        {
          "internalType": "uint256",
          "name": "index",
          "type": "uint256"
        }
      ],
      "name": "getRoleMember",
      "outputs": [
        {
          "internalType": "address",
          "name": "",
          "type": "address"
        }
      ],
      "stateMutability": "view",
      "type": "function",
      "constant": true
    },
    {
      "inputs": [
        {
          "internalType": "bytes32",
          "name": "role",
          "type": "bytes32"
        }
      ],
      "name": "getRoleMemberCount",
      "outputs": [
        {
          "internalType": "uint256",
          "name": "",
          "type": "uint256"
        }
      ],
      "stateMutability": "view",
      "type": "function",
      "constant": true
    },
    {
      "inputs": [
        {
          "internalType": "bytes32",
          "name": "role",
          "type": "bytes32"
        },
        {
          "internalType": "address",
          "name": "account",
          "type": "address"
        }
      ],
      "name": "grantRole",
      "outputs": [],
      "stateMutability": "nonpayable",
      "type": "function"
    },
    {
      "inputs": [
        {
          "internalType": "bytes32",
          "name": "role",
          "type": "bytes32"
        },
        {
          "internalType": "address",
          "name": "account",
          "type": "address"
        }
      ],
      "name": "hasRole",
      "outputs": [
        {
          "internalType": "bool",
          "name": "",
          "type": "bool"
        }
      ],
      "stateMutability": "view",
      "type": "function",
      "constant": true
    },
    {
      "inputs": [
        {
          "internalType": "address",
          "name": "owner",
          "type": "address"
        },
        {
          "internalType": "address",
          "name": "operator",
          "type": "address"
        }
      ],
      "name": "isApprovedForAll",
      "outputs": [
        {
          "internalType": "bool",
          "name": "",
          "type": "bool"
        }
      ],
      "stateMutability": "view",
      "type": "function",
      "constant": true
    },
    {
      "inputs": [],
      "name": "name",
      "outputs": [
        {
          "internalType": "string",
          "name": "",
          "type": "string"
        }
      ],
      "stateMutability": "view",
      "type": "function",
      "constant": true
    },
    {
      "inputs": [
        {
          "internalType": "uint256",
          "name": "tokenId",
          "type": "uint256"
        }
      ],
      "name": "ownerOf",
      "outputs": [
        {
          "internalType": "address",
          "name": "",
          "type": "address"
        }
      ],
      "stateMutability": "view",
      "type": "function",
      "constant": true
    },
    {
      "inputs": [],
      "name": "paused",
      "outputs": [
        {
          "internalType": "bool",
          "name": "",
          "type": "bool"
        }
      ],
      "stateMutability": "view",
      "type": "function",
      "constant": true
    },
    {
      "inputs": [
        {
          "internalType": "bytes32",
          "name": "role",
          "type": "bytes32"
        },
        {
          "internalType": "address",
          "name": "account",
          "type": "address"
        }
      ],
      "name": "renounceRole",
      "outputs": [],
      "stateMutability": "nonpayable",
      "type": "function"
    },
    {
      "inputs": [
        {
          "internalType": "bytes32",
          "name": "role",
          "type": "bytes32"
        },
        {
          "internalType": "address",
          "name": "account",
          "type": "address"
        }
      ],
      "name": "revokeRole",
      "outputs": [],
      "stateMutability": "nonpayable",
      "type": "function"
    },
    {
      "inputs": [
        {
          "internalType": "address",
          "name": "from",
          "type": "address"
        },
        {
          "internalType": "address",
          "name": "to",
          "type": "address"
        },
        {
          "internalType": "uint256",
          "name": "tokenId",
          "type": "uint256"
        }
      ],
      "name": "safeTransferFrom",
      "outputs": [],
      "stateMutability": "nonpayable",
      "type": "function"
    },
    {
      "inputs": [
        {
          "internalType": "address",
          "name": "from",
          "type": "address"
        },
        {
          "internalType": "address",
          "name": "to",
          "type": "address"
        },
        {
          "internalType": "uint256",
          "name": "tokenId",
          "type": "uint256"
        },
        {
          "internalType": "bytes",
          "name": "_data",
          "type": "bytes"
        }
      ],
      "name": "safeTransferFrom",
      "outputs": [],
      "stateMutability": "nonpayable",
      "type": "function"
    },
    {
      "inputs": [
        {
          "internalType": "address",
          "name": "operator",
          "type": "address"
        },
        {
          "internalType": "bool",
          "name": "approved",
          "type": "bool"
        }
      ],
      "name": "setApprovalForAll",
      "outputs": [],
      "stateMutability": "nonpayable",
      "type": "function"
    },
    {
      "inputs": [],
      "name": "symbol",
      "outputs": [
        {
          "internalType": "string",
          "name": "",
          "type": "string"
        }
      ],
      "stateMutability": "view",
      "type": "function",
      "constant": true
    },
    {
      "inputs": [
        {
          "internalType": "uint256",
          "name": "index",
          "type": "uint256"
        }
      ],
      "name": "tokenByIndex",
      "outputs": [
        {
          "internalType": "uint256",
          "name": "",
          "type": "uint256"
        }
      ],
      "stateMutability": "view",
      "type": "function",
      "constant": true
    },
    {
      "inputs": [
        {
          "internalType": "address",
          "name": "owner",
          "type": "address"
        },
        {
          "internalType": "uint256",
          "name": "index",
          "type": "uint256"
        }
      ],
      "name": "tokenOfOwnerByIndex",
      "outputs": [
        {
          "internalType": "uint256",
          "name": "",
          "type": "uint256"
        }
      ],
      "stateMutability": "view",
      "type": "function",
      "constant": true
    },
    {
      "inputs": [],
      "name": "totalSupply",
      "outputs": [
        {
          "internalType": "uint256",
          "name": "",
          "type": "uint256"
        }
      ],
      "stateMutability": "view",
      "type": "function",
      "constant": true
    },
    {
      "inputs": [
        {
          "internalType": "uint256",
          "name": "tokenId",
          "type": "uint256"
        }
      ],
      "name": "tokenURI",
      "outputs": [
        {
          "internalType": "string",
          "name": "",
          "type": "string"
        }
      ],
      "stateMutability": "view",
      "type": "function",
      "constant": true
    },
    {
      "inputs": [
        {
          "internalType": "address",
          "name": "owner",
          "type": "address"
        },
        {
          "internalType": "string",
          "name": "metadataURI",
          "type": "string"
        }
      ],
      "name": "uploadPhoto",
      "outputs": [
        {
          "internalType": "uint256",
          "name": "",
          "type": "uint256"
        }
      ],
      "stateMutability": "nonpayable",
      "type": "function"
    },
    {
      "inputs": [
        {
          "internalType": "uint256",
          "name": "tokenId",
          "type": "uint256"
        },
        {
          "internalType": "address",
          "name": "to",
          "type": "address"
        }
      ],
      "name": "transferOwnership",
      "outputs": [
        {
          "internalType": "uint256",
          "name": "",
          "type": "uint256"
        },
        {
          "internalType": "address",
          "name": "",
          "type": "address"
        },
        {
          "internalType": "address",
          "name": "",
          "type": "address"
        },
        {
          "internalType": "address",
          "name": "",
          "type": "address"
        }
      ],
      "stateMutability": "nonpayable",
      "type": "function"
    },
    {
      "inputs": [
        {
          "internalType": "address",
          "name": "from",
          "type": "address"
        },
        {
          "internalType": "address",
          "name": "to",
          "type": "address"
        },
        {
          "internalType": "uint256",
          "name": "tokenId",
          "type": "uint256"
        }
      ],
      "name": "transferFrom",
      "outputs": [],
      "stateMutability": "nonpayable",
      "type": "function"
    },
    {
      "inputs": [],
      "name": "getTotalPhotoCount",
      "outputs": [
        {
          "internalType": "uint256",
          "name": "",
          "type": "uint256"
        }
      ],
      "stateMutability": "view",
      "type": "function",
      "constant": true
    },
    {
      "inputs": [
        {
          "internalType": "uint256",
          "name": "tokenId",
          "type": "uint256"
        }
      ],
      "name": "getPhoto",
      "outputs": [
        {
          "internalType": "uint256",
          "name": "",
          "type": "uint256"
        },
        {
          "internalType": "address[]",
          "name": "",
          "type": "address[]"
        },
        {
          "internalType": "string",
          "name": "",
          "type": "string"
        },
        {
          "internalType": "uint256",
          "name": "",
          "type": "uint256"
        }
      ],
      "stateMutability": "view",
      "type": "function",
      "constant": true
    },
    {
      "inputs": [
        {
          "internalType": "bytes4",
          "name": "interfaceId",
          "type": "bytes4"
        }
      ],
      "name": "supportsInterface",
      "outputs": [
        {
          "internalType": "bool",
          "name": "",
          "type": "bool"
        }
      ],
      "stateMutability": "view",
      "type": "function",
      "constant": true
    }
  ],
  "bytecode": "0x60806040523480156200001157600080fd5b5060405162004c7138038062004c718339818101604052810190620000379190620002f7565b8282816000908051906020019062000051929190620000aa565b5080600190805190602001906200006a929190620000aa565b5050506000600a60006101000a81548160ff02191690831515021790555080600e9080519060200190620000a0929190620000aa565b5050505062000414565b828054620000b890620003df565b90600052602060002090601f016020900481019282620000dc576000855562000128565b82601f10620000f757805160ff191683800117855562000128565b8280016001018555821562000128579182015b82811115620001275782518255916020019190600101906200010a565b5b5090506200013791906200013b565b5090565b5b80821115620001565760008160009055506001016200013c565b5090565b6000604051905090565b600080fd5b600080fd5b600080fd5b600080fd5b6000601f19601f8301169050919050565b7f4e487b7100000000000000000000000000000000000000000000000000000000600052604160045260246000fd5b620001c38262000178565b810181811067ffffffffffffffff82111715620001e557620001e462000189565b5b80604052505050565b6000620001fa6200015a565b9050620002088282620001b8565b919050565b600067ffffffffffffffff8211156200022b576200022a62000189565b5b620002368262000178565b9050602081019050919050565b60005b838110156200026357808201518184015260208101905062000246565b8381111562000273576000848401525b50505050565b6000620002906200028a846200020d565b620001ee565b905082815260208101848484011115620002af57620002ae62000173565b5b620002bc84828562000243565b509392505050565b600082601f830112620002dc57620002db6200016e565b5b8151620002ee84826020860162000279565b91505092915050565b60008060006060848603121562000313576200031262000164565b5b600084015167ffffffffffffffff81111562000334576200033362000169565b5b6200034286828701620002c4565b935050602084015167ffffffffffffffff81111562000366576200036562000169565b5b6200037486828701620002c4565b925050604084015167ffffffffffffffff81111562000398576200039762000169565b5b620003a686828701620002c4565b9150509250925092565b7f4e487b7100000000000000000000000000000000000000000000000000000000600052602260045260246000fd5b60006002820490506001821680620003f857607f821691505b6020821081036200040e576200040d620003b0565b5b50919050565b61484d80620004246000396000f3fe608060405234801561001057600080fd5b50600436106101cf5760003560e01c80636352211e11610104578063a22cb465116100a2578063ca15c87311610071578063ca15c87314610592578063d547741f146105c2578063e985e9c5146105de578063f371a1ce1461060e576101cf565b8063a22cb465146104f7578063b6be128a14610513578063b88d4fde14610546578063c87b56dd14610562576101cf565b80639010d07c116100de5780639010d07c1461045b57806391d148541461048b57806395d89b41146104bb578063a217fddf146104d9576101cf565b80636352211e146103dd57806370a082311461040d57806370dc232a1461043d576101cf565b806329507f731161017157806336568abe1161014b57806336568abe1461035757806342842e0e146103735780634f6ccce71461038f5780635c975abb146103bf576101cf565b806329507f73146102d85780632f2ff15d1461030b5780632f745c5914610327576101cf565b8063095ea7b3116101ad578063095ea7b31461025257806318160ddd1461026e57806323b872dd1461028c578063248a9ca3146102a8576101cf565b806301ffc9a7146101d457806306fdde0314610204578063081812fc14610222575b600080fd5b6101ee60048036038101906101e99190612fa3565b61063e565b6040516101fb9190612feb565b60405180910390f35b61020c610650565b604051610219919061309f565b60405180910390f35b61023c600480360381019061023791906130f7565b6106e2565b6040516102499190613165565b60405180910390f35b61026c600480360381019061026791906131ac565b610767565b005b61027661087e565b60405161028391906131fb565b60405180910390f35b6102a660048036038101906102a19190613216565b61088b565b005b6102c260048036038101906102bd919061329f565b610912565b6040516102cf91906132db565b60405180910390f35b6102f260048036038101906102ed91906132f6565b610932565b6040516103029493929190613336565b60405180910390f35b6103256004803603810190610320919061337b565b610a9c565b005b610341600480360381019061033c91906131ac565b610abd565b60405161034e91906131fb565b60405180910390f35b610371600480360381019061036c919061337b565b610b62565b005b61038d60048036038101906103889190613216565b610be5565b005b6103a960048036038101906103a491906130f7565b610c05565b6040516103b691906131fb565b60405180910390f35b6103c7610c76565b6040516103d49190612feb565b60405180910390f35b6103f760048036038101906103f291906130f7565b610c8d565b6040516104049190613165565b60405180910390f35b610427600480360381019061042291906133bb565b610d3e565b60405161043491906131fb565b60405180910390f35b610445610df5565b60405161045291906131fb565b60405180910390f35b610475600480360381019061047091906133e8565b610e04565b6040516104829190613165565b60405180910390f35b6104a560048036038101906104a0919061337b565b610e33565b6040516104b29190612feb565b60405180910390f35b6104c3610e9e565b6040516104d0919061309f565b60405180910390f35b6104e1610f30565b6040516104ee91906132db565b60405180910390f35b610511600480360381019061050c9190613454565b610f37565b005b61052d600480360381019061052891906130f7565b610f4d565b60405161053d9493929190613552565b60405180910390f35b610560600480360381019061055b91906136da565b611129565b005b61057c600480360381019061057791906130f7565b61118b565b604051610589919061309f565b60405180910390f35b6105ac60048036038101906105a7919061329f565b61123f565b6040516105b991906131fb565b60405180910390f35b6105dc60048036038101906105d7919061337b565b611263565b005b6105f860048036038101906105f3919061375d565b611284565b6040516106059190612feb565b60405180910390f35b6106286004803603810190610623919061383e565b611318565b60405161063591906131fb565b60405180910390f35b60006106498261148e565b9050919050565b60606000805461065f906138c9565b80601f016020809104026020016040519081016040528092919081815260200182805461068b906138c9565b80156106d85780601f106106ad576101008083540402835291602001916106d8565b820191906000526020600020905b8154815290600101906020018083116106bb57829003601f168201915b5050505050905090565b60006106ed82611508565b61072c576040517f08c379a00000000000000000000000000000000000000000000000000000000081526004016107239061396c565b60405180910390fd5b6004600083815260200190815260200160002060009054906101000a900473ffffffffffffffffffffffffffffffffffffffff169050919050565b600061077282610c8d565b90508073ffffffffffffffffffffffffffffffffffffffff168373ffffffffffffffffffffffffffffffffffffffff16036107e2576040517f08c379a00000000000000000000000000000000000000000000000000000000081526004016107d9906139fe565b60405180910390fd5b8073ffffffffffffffffffffffffffffffffffffffff16610801611574565b73ffffffffffffffffffffffffffffffffffffffff161480610830575061082f8161082a611574565b611284565b5b61086f576040517f08c379a000000000000000000000000000000000000000000000000000000000815260040161086690613a90565b60405180910390fd5b610879838361157c565b505050565b6000600880549050905090565b610896838383611635565b600d6000828152602001908152602001600020600101829080600181540180825580915050600190039060005260206000200160009091909190916101000a81548173ffffffffffffffffffffffffffffffffffffffff021916908373ffffffffffffffffffffffffffffffffffffffff160217905550505050565b6000600b6000838152602001908152602001600020600101549050919050565b60008060008061094333868861088b565b6000600d6000888152602001908152602001600020600101805490509050600d600088815260200190815260200160002060000154600d60008981526020019081526020016000206001016000815481106109a1576109a0613ab0565b5b9060005260206000200160009054906101000a900473ffffffffffffffffffffffffffffffffffffffff16600d60008a81526020019081526020016000206001016002846109ef9190613b0e565b81548110610a00576109ff613ab0565b5b9060005260206000200160009054906101000a900473ffffffffffffffffffffffffffffffffffffffff16600d60008b8152602001908152602001600020600101600185610a4e9190613b0e565b81548110610a5f57610a5e613ab0565b5b9060005260206000200160009054906101000a900473ffffffffffffffffffffffffffffffffffffffff1694509450945094505092959194509250565b610aa582610912565b610aae81611695565b610ab883836116a9565b505050565b6000610ac883610d3e565b8210610b09576040517f08c379a0000000000000000000000000000000000000000000000000000000008152600401610b0090613bb4565b60405180910390fd5b600660008473ffffffffffffffffffffffffffffffffffffffff1673ffffffffffffffffffffffffffffffffffffffff168152602001908152602001600020600083815260200190815260200160002054905092915050565b610b6a611574565b73ffffffffffffffffffffffffffffffffffffffff168173ffffffffffffffffffffffffffffffffffffffff1614610bd7576040517f08c379a0000000000000000000000000000000000000000000000000000000008152600401610bce90613c46565b60405180910390fd5b610be182826116dd565b5050565b610c0083838360405180602001604052806000815250611129565b505050565b6000610c0f61087e565b8210610c50576040517f08c379a0000000000000000000000000000000000000000000000000000000008152600401610c4790613cd8565b60405180910390fd5b60088281548110610c6457610c63613ab0565b5b90600052602060002001549050919050565b6000600a60009054906101000a900460ff16905090565b6000806002600084815260200190815260200160002060009054906101000a900473ffffffffffffffffffffffffffffffffffffffff169050600073ffffffffffffffffffffffffffffffffffffffff168173ffffffffffffffffffffffffffffffffffffffff1603610d35576040517f08c379a0000000000000000000000000000000000000000000000000000000008152600401610d2c90613d6a565b60405180910390fd5b80915050919050565b60008073ffffffffffffffffffffffffffffffffffffffff168273ffffffffffffffffffffffffffffffffffffffff1603610dae576040517f08c379a0000000000000000000000000000000000000000000000000000000008152600401610da590613dfc565b60405180910390fd5b600360008373ffffffffffffffffffffffffffffffffffffffff1673ffffffffffffffffffffffffffffffffffffffff168152602001908152602001600020549050919050565b6000610dff61087e565b905090565b6000610e2b82600c600086815260200190815260200160002061171190919063ffffffff16565b905092915050565b6000600b600084815260200190815260200160002060000160008373ffffffffffffffffffffffffffffffffffffffff1673ffffffffffffffffffffffffffffffffffffffff16815260200190815260200160002060009054906101000a900460ff16905092915050565b606060018054610ead906138c9565b80601f0160208091040260200160405190810160405280929190818152602001828054610ed9906138c9565b8015610f265780601f10610efb57610100808354040283529160200191610f26565b820191906000526020600020905b815481529060010190602001808311610f0957829003601f168201915b5050505050905090565b6000801b81565b610f49610f42611574565b838361172b565b5050565b6000606080600080600d60008781526020019081526020016000206000015403610fac576040517f08c379a0000000000000000000000000000000000000000000000000000000008152600401610fa390613e68565b60405180910390fd5b600d600086815260200190815260200160002060000154600d6000878152602001908152602001600020600101600d6000888152602001908152602001600020600201600d6000898152602001908152602001600020600301548280548060200260200160405190810160405280929190818152602001828054801561108757602002820191906000526020600020905b8160009054906101000a900473ffffffffffffffffffffffffffffffffffffffff1673ffffffffffffffffffffffffffffffffffffffff168152602001906001019080831161103d575b5050505050925081805461109a906138c9565b80601f01602080910402602001604051908101604052809291908181526020018280546110c6906138c9565b80156111135780601f106110e857610100808354040283529160200191611113565b820191906000526020600020905b8154815290600101906020018083116110f657829003601f168201915b5050505050915093509350935093509193509193565b61113a611134611574565b83611897565b611179576040517f08c379a000000000000000000000000000000000000000000000000000000000815260040161117090613efa565b60405180910390fd5b61118584848484611975565b50505050565b606061119682611508565b6111d5576040517f08c379a00000000000000000000000000000000000000000000000000000000081526004016111cc90613f8c565b60405180910390fd5b60006111df6119d1565b905060008151116111ff5760405180602001604052806000815250611237565b80600d600085815260200190815260200160002060020160405160200161122792919061407c565b6040516020818303038152906040525b915050919050565b600061125c600c6000848152602001908152602001600020611a63565b9050919050565b61126c82610912565b61127581611695565b61127f83836116dd565b505050565b6000600560008473ffffffffffffffffffffffffffffffffffffffff1673ffffffffffffffffffffffffffffffffffffffff16815260200190815260200160002060008373ffffffffffffffffffffffffffffffffffffffff1673ffffffffffffffffffffffffffffffffffffffff16815260200190815260200160002060009054906101000a900460ff16905092915050565b600080600161132561087e565b61132f91906140a0565b905061133b3382611a78565b6113448161118b565b5060606000604051806080016040528084815260200183815260200186815260200142815250905080600d60008581526020019081526020016000206000820151816000015560208201518160010190805190602001906113a6929190612e0a565b5060408201518160020190805190602001906113c3929190612e94565b5060608201518160030155905050600d6000848152602001908152602001600020600101339080600181540180825580915050600190039060005260206000200160009091909190916101000a81548173ffffffffffffffffffffffffffffffffffffffff021916908373ffffffffffffffffffffffffffffffffffffffff160217905550827fcb75cf07b380aae2b4ecf6a5ac4e13c8f7b3a261d351d8fcbf15d2ff82e7f3db864260405161147a9291906140f6565b60405180910390a282935050505092915050565b60007f5a05180f000000000000000000000000000000000000000000000000000000007bffffffffffffffffffffffffffffffffffffffffffffffffffffffff1916827bffffffffffffffffffffffffffffffffffffffffffffffffffffffff19161480611501575061150082611c51565b5b9050919050565b60008073ffffffffffffffffffffffffffffffffffffffff166002600084815260200190815260200160002060009054906101000a900473ffffffffffffffffffffffffffffffffffffffff1673ffffffffffffffffffffffffffffffffffffffff1614159050919050565b600033905090565b816004600083815260200190815260200160002060006101000a81548173ffffffffffffffffffffffffffffffffffffffff021916908373ffffffffffffffffffffffffffffffffffffffff160217905550808273ffffffffffffffffffffffffffffffffffffffff166115ef83610c8d565b73ffffffffffffffffffffffffffffffffffffffff167f8c5be1e5ebec7d5bd14f71427d1e84f3dd0314c0f7b2291e5b200ac8c7c3b92560405160405180910390a45050565b611646611640611574565b82611897565b611685576040517f08c379a000000000000000000000000000000000000000000000000000000000815260040161167c90613efa565b60405180910390fd5b611690838383611ccb565b505050565b6116a6816116a1611574565b611f31565b50565b6116b38282611fce565b6116d881600c60008581526020019081526020016000206120af90919063ffffffff16565b505050565b6116e782826120df565b61170c81600c60008581526020019081526020016000206121c190919063ffffffff16565b505050565b600061172083600001836121f1565b60001c905092915050565b8173ffffffffffffffffffffffffffffffffffffffff168373ffffffffffffffffffffffffffffffffffffffff1603611799576040517f08c379a000000000000000000000000000000000000000000000000000000000815260040161179090614172565b60405180910390fd5b80600560008573ffffffffffffffffffffffffffffffffffffffff1673ffffffffffffffffffffffffffffffffffffffff16815260200190815260200160002060008473ffffffffffffffffffffffffffffffffffffffff1673ffffffffffffffffffffffffffffffffffffffff16815260200190815260200160002060006101000a81548160ff0219169083151502179055508173ffffffffffffffffffffffffffffffffffffffff168373ffffffffffffffffffffffffffffffffffffffff167f17307eab39ab6107e8899845ad3d59bd9653f200f220920489ca2b5937696c318360405161188a9190612feb565b60405180910390a3505050565b60006118a282611508565b6118e1576040517f08c379a00000000000000000000000000000000000000000000000000000000081526004016118d890614204565b60405180910390fd5b60006118ec83610c8d565b90508073ffffffffffffffffffffffffffffffffffffffff168473ffffffffffffffffffffffffffffffffffffffff16148061192e575061192d8185611284565b5b8061196c57508373ffffffffffffffffffffffffffffffffffffffff16611954846106e2565b73ffffffffffffffffffffffffffffffffffffffff16145b91505092915050565b611980848484611ccb565b61198c8484848461221c565b6119cb576040517f08c379a00000000000000000000000000000000000000000000000000000000081526004016119c290614296565b60405180910390fd5b50505050565b6060600e80546119e0906138c9565b80601f0160208091040260200160405190810160405280929190818152602001828054611a0c906138c9565b8015611a595780601f10611a2e57610100808354040283529160200191611a59565b820191906000526020600020905b815481529060010190602001808311611a3c57829003601f168201915b5050505050905090565b6000611a71826000016123a3565b9050919050565b600073ffffffffffffffffffffffffffffffffffffffff168273ffffffffffffffffffffffffffffffffffffffff1603611ae7576040517f08c379a0000000000000000000000000000000000000000000000000000000008152600401611ade90614302565b60405180910390fd5b611af081611508565b15611b30576040517f08c379a0000000000000000000000000000000000000000000000000000000008152600401611b279061436e565b60405180910390fd5b611b3c600083836123b4565b6001600360008473ffffffffffffffffffffffffffffffffffffffff1673ffffffffffffffffffffffffffffffffffffffff1681526020019081526020016000206000828254611b8c91906140a0565b92505081905550816002600083815260200190815260200160002060006101000a81548173ffffffffffffffffffffffffffffffffffffffff021916908373ffffffffffffffffffffffffffffffffffffffff160217905550808273ffffffffffffffffffffffffffffffffffffffff16600073ffffffffffffffffffffffffffffffffffffffff167fddf252ad1be2c89b69c2b068fc378daa952ba7f163c4a11628f55a4df523b3ef60405160405180910390a4611c4d600083836123c4565b5050565b60007f7965db0b000000000000000000000000000000000000000000000000000000007bffffffffffffffffffffffffffffffffffffffffffffffffffffffff1916827bffffffffffffffffffffffffffffffffffffffffffffffffffffffff19161480611cc45750611cc3826123c9565b5b9050919050565b8273ffffffffffffffffffffffffffffffffffffffff16611ceb82610c8d565b73ffffffffffffffffffffffffffffffffffffffff1614611d41576040517f08c379a0000000000000000000000000000000000000000000000000000000008152600401611d3890614400565b60405180910390fd5b600073ffffffffffffffffffffffffffffffffffffffff168273ffffffffffffffffffffffffffffffffffffffff1603611db0576040517f08c379a0000000000000000000000000000000000000000000000000000000008152600401611da790614492565b60405180910390fd5b611dbb8383836123b4565b611dc660008261157c565b6001600360008573ffffffffffffffffffffffffffffffffffffffff1673ffffffffffffffffffffffffffffffffffffffff1681526020019081526020016000206000828254611e169190613b0e565b925050819055506001600360008473ffffffffffffffffffffffffffffffffffffffff1673ffffffffffffffffffffffffffffffffffffffff1681526020019081526020016000206000828254611e6d91906140a0565b92505081905550816002600083815260200190815260200160002060006101000a81548173ffffffffffffffffffffffffffffffffffffffff021916908373ffffffffffffffffffffffffffffffffffffffff160217905550808273ffffffffffffffffffffffffffffffffffffffff168473ffffffffffffffffffffffffffffffffffffffff167fddf252ad1be2c89b69c2b068fc378daa952ba7f163c4a11628f55a4df523b3ef60405160405180910390a4611f2c8383836123c4565b505050565b611f3b8282610e33565b611fca57611f608173ffffffffffffffffffffffffffffffffffffffff166014612443565b611f6e8360001c6020612443565b604051602001611f7f92919061454a565b6040516020818303038152906040526040517f08c379a0000000000000000000000000000000000000000000000000000000008152600401611fc1919061309f565b60405180910390fd5b5050565b611fd88282610e33565b6120ab576001600b600084815260200190815260200160002060000160008373ffffffffffffffffffffffffffffffffffffffff1673ffffffffffffffffffffffffffffffffffffffff16815260200190815260200160002060006101000a81548160ff021916908315150217905550612050611574565b73ffffffffffffffffffffffffffffffffffffffff168173ffffffffffffffffffffffffffffffffffffffff16837f2f8788117e7eff1d82e926ec794901d17c78024a50270940304540a733656f0d60405160405180910390a45b5050565b60006120d7836000018373ffffffffffffffffffffffffffffffffffffffff1660001b61267f565b905092915050565b6120e98282610e33565b156121bd576000600b600084815260200190815260200160002060000160008373ffffffffffffffffffffffffffffffffffffffff1673ffffffffffffffffffffffffffffffffffffffff16815260200190815260200160002060006101000a81548160ff021916908315150217905550612162611574565b73ffffffffffffffffffffffffffffffffffffffff168173ffffffffffffffffffffffffffffffffffffffff16837ff6391f5c32d9c69d2a47ea670b442974b53935d1edc7fd64eb21e047a839171b60405160405180910390a45b5050565b60006121e9836000018373ffffffffffffffffffffffffffffffffffffffff1660001b6126ef565b905092915050565b600082600001828154811061220957612208613ab0565b5b9060005260206000200154905092915050565b600061223d8473ffffffffffffffffffffffffffffffffffffffff16612803565b15612396578373ffffffffffffffffffffffffffffffffffffffff1663150b7a02612266611574565b8786866040518563ffffffff1660e01b815260040161228894939291906145d9565b6020604051808303816000875af19250505080156122c457506040513d601f19601f820116820180604052508101906122c1919061463a565b60015b612346573d80600081146122f4576040519150601f19603f3d011682016040523d82523d6000602084013e6122f9565b606091505b50600081510361233e576040517f08c379a000000000000000000000000000000000000000000000000000000000815260040161233590614296565b60405180910390fd5b805181602001fd5b63150b7a0260e01b7bffffffffffffffffffffffffffffffffffffffffffffffffffffffff1916817bffffffffffffffffffffffffffffffffffffffffffffffffffffffff19161491505061239b565b600190505b949350505050565b600081600001805490509050919050565b6123bf838383612826565b505050565b505050565b60007f780e9d63000000000000000000000000000000000000000000000000000000007bffffffffffffffffffffffffffffffffffffffffffffffffffffffff1916827bffffffffffffffffffffffffffffffffffffffffffffffffffffffff1916148061243c575061243b8261287e565b5b9050919050565b6060600060028360026124569190614667565b61246091906140a0565b67ffffffffffffffff811115612479576124786135af565b5b6040519080825280601f01601f1916602001820160405280156124ab5781602001600182028036833780820191505090505b5090507f3000000000000000000000000000000000000000000000000000000000000000816000815181106124e3576124e2613ab0565b5b60200101907effffffffffffffffffffffffffffffffffffffffffffffffffffffffffffff1916908160001a9053507f78000000000000000000000000000000000000000000000000000000000000008160018151811061254757612546613ab0565b5b60200101907effffffffffffffffffffffffffffffffffffffffffffffffffffffffffffff1916908160001a905350600060018460026125879190614667565b61259191906140a0565b90505b6001811115612631577f3031323334353637383961626364656600000000000000000000000000000000600f8616601081106125d3576125d2613ab0565b5b1a60f81b8282815181106125ea576125e9613ab0565b5b60200101907effffffffffffffffffffffffffffffffffffffffffffffffffffffffffffff1916908160001a905350600485901c94508061262a906146c1565b9050612594565b5060008414612675576040517f08c379a000000000000000000000000000000000000000000000000000000000815260040161266c90614736565b60405180910390fd5b8091505092915050565b600061268b8383612960565b6126e45782600001829080600181540180825580915050600190039060005260206000200160009091909190915055826000018054905083600101600084815260200190815260200160002081905550600190506126e9565b600090505b92915050565b600080836001016000848152602001908152602001600020549050600081146127f75760006001826127219190613b0e565b90506000600186600001805490506127399190613b0e565b90508181146127a857600086600001828154811061275a57612759613ab0565b5b906000526020600020015490508087600001848154811061277e5761277d613ab0565b5b90600052602060002001819055508387600101600083815260200190815260200160002081905550505b856000018054806127bc576127bb614756565b5b6001900381819060005260206000200160009055905585600101600086815260200190815260200160002060009055600193505050506127fd565b60009150505b92915050565b6000808273ffffffffffffffffffffffffffffffffffffffff163b119050919050565b612831838383612983565b612839610c76565b15612879576040517f08c379a0000000000000000000000000000000000000000000000000000000008152600401612870906147f7565b60405180910390fd5b505050565b60007f80ac58cd000000000000000000000000000000000000000000000000000000007bffffffffffffffffffffffffffffffffffffffffffffffffffffffff1916827bffffffffffffffffffffffffffffffffffffffffffffffffffffffff1916148061294957507f5b5e139f000000000000000000000000000000000000000000000000000000007bffffffffffffffffffffffffffffffffffffffffffffffffffffffff1916827bffffffffffffffffffffffffffffffffffffffffffffffffffffffff1916145b80612959575061295882612a95565b5b9050919050565b600080836001016000848152602001908152602001600020541415905092915050565b61298e838383612aff565b600073ffffffffffffffffffffffffffffffffffffffff168373ffffffffffffffffffffffffffffffffffffffff16036129d0576129cb81612b04565b612a0f565b8173ffffffffffffffffffffffffffffffffffffffff168373ffffffffffffffffffffffffffffffffffffffff1614612a0e57612a0d8382612b4d565b5b5b600073ffffffffffffffffffffffffffffffffffffffff168273ffffffffffffffffffffffffffffffffffffffff1603612a5157612a4c81612cba565b612a90565b8273ffffffffffffffffffffffffffffffffffffffff168273ffffffffffffffffffffffffffffffffffffffff1614612a8f57612a8e8282612d8b565b5b5b505050565b60007f01ffc9a7000000000000000000000000000000000000000000000000000000007bffffffffffffffffffffffffffffffffffffffffffffffffffffffff1916827bffffffffffffffffffffffffffffffffffffffffffffffffffffffff1916149050919050565b505050565b6008805490506009600083815260200190815260200160002081905550600881908060018154018082558091505060019003906000526020600020016000909190919091505550565b60006001612b5a84610d3e565b612b649190613b0e565b9050600060076000848152602001908152602001600020549050818114612c49576000600660008673ffffffffffffffffffffffffffffffffffffffff1673ffffffffffffffffffffffffffffffffffffffff168152602001908152602001600020600084815260200190815260200160002054905080600660008773ffffffffffffffffffffffffffffffffffffffff1673ffffffffffffffffffffffffffffffffffffffff168152602001908152602001600020600084815260200190815260200160002081905550816007600083815260200190815260200160002081905550505b6007600084815260200190815260200160002060009055600660008573ffffffffffffffffffffffffffffffffffffffff1673ffffffffffffffffffffffffffffffffffffffff16815260200190815260200160002060008381526020019081526020016000206000905550505050565b60006001600880549050612cce9190613b0e565b9050600060096000848152602001908152602001600020549050600060088381548110612cfe57612cfd613ab0565b5b906000526020600020015490508060088381548110612d2057612d1f613ab0565b5b906000526020600020018190555081600960008381526020019081526020016000208190555060096000858152602001908152602001600020600090556008805480612d6f57612d6e614756565b5b6001900381819060005260206000200160009055905550505050565b6000612d9683610d3e565b905081600660008573ffffffffffffffffffffffffffffffffffffffff1673ffffffffffffffffffffffffffffffffffffffff168152602001908152602001600020600083815260200190815260200160002081905550806007600084815260200190815260200160002081905550505050565b828054828255906000526020600020908101928215612e83579160200282015b82811115612e825782518260006101000a81548173ffffffffffffffffffffffffffffffffffffffff021916908373ffffffffffffffffffffffffffffffffffffffff16021790555091602001919060010190612e2a565b5b509050612e909190612f1a565b5090565b828054612ea0906138c9565b90600052602060002090601f016020900481019282612ec25760008555612f09565b82601f10612edb57805160ff1916838001178555612f09565b82800160010185558215612f09579182015b82811115612f08578251825591602001919060010190612eed565b5b509050612f169190612f1a565b5090565b5b80821115612f33576000816000905550600101612f1b565b5090565b6000604051905090565b600080fd5b600080fd5b60007fffffffff0000000000000000000000000000000000000000000000000000000082169050919050565b612f8081612f4b565b8114612f8b57600080fd5b50565b600081359050612f9d81612f77565b92915050565b600060208284031215612fb957612fb8612f41565b5b6000612fc784828501612f8e565b91505092915050565b60008115159050919050565b612fe581612fd0565b82525050565b60006020820190506130006000830184612fdc565b92915050565b600081519050919050565b600082825260208201905092915050565b60005b83811015613040578082015181840152602081019050613025565b8381111561304f576000848401525b50505050565b6000601f19601f8301169050919050565b600061307182613006565b61307b8185613011565b935061308b818560208601613022565b61309481613055565b840191505092915050565b600060208201905081810360008301526130b98184613066565b905092915050565b6000819050919050565b6130d4816130c1565b81146130df57600080fd5b50565b6000813590506130f1816130cb565b92915050565b60006020828403121561310d5761310c612f41565b5b600061311b848285016130e2565b91505092915050565b600073ffffffffffffffffffffffffffffffffffffffff82169050919050565b600061314f82613124565b9050919050565b61315f81613144565b82525050565b600060208201905061317a6000830184613156565b92915050565b61318981613144565b811461319457600080fd5b50565b6000813590506131a681613180565b92915050565b600080604083850312156131c3576131c2612f41565b5b60006131d185828601613197565b92505060206131e2858286016130e2565b9150509250929050565b6131f5816130c1565b82525050565b600060208201905061321060008301846131ec565b92915050565b60008060006060848603121561322f5761322e612f41565b5b600061323d86828701613197565b935050602061324e86828701613197565b925050604061325f868287016130e2565b9150509250925092565b6000819050919050565b61327c81613269565b811461328757600080fd5b50565b60008135905061329981613273565b92915050565b6000602082840312156132b5576132b4612f41565b5b60006132c38482850161328a565b91505092915050565b6132d581613269565b82525050565b60006020820190506132f060008301846132cc565b92915050565b6000806040838503121561330d5761330c612f41565b5b600061331b858286016130e2565b925050602061332c85828601613197565b9150509250929050565b600060808201905061334b60008301876131ec565b6133586020830186613156565b6133656040830185613156565b6133726060830184613156565b95945050505050565b6000806040838503121561339257613391612f41565b5b60006133a08582860161328a565b92505060206133b185828601613197565b9150509250929050565b6000602082840312156133d1576133d0612f41565b5b60006133df84828501613197565b91505092915050565b600080604083850312156133ff576133fe612f41565b5b600061340d8582860161328a565b925050602061341e858286016130e2565b9150509250929050565b61343181612fd0565b811461343c57600080fd5b50565b60008135905061344e81613428565b92915050565b6000806040838503121561346b5761346a612f41565b5b600061347985828601613197565b925050602061348a8582860161343f565b9150509250929050565b600081519050919050565b600082825260208201905092915050565b6000819050602082019050919050565b6134c981613144565b82525050565b60006134db83836134c0565b60208301905092915050565b6000602082019050919050565b60006134ff82613494565b613509818561349f565b9350613514836134b0565b8060005b8381101561354557815161352c88826134cf565b9750613537836134e7565b925050600181019050613518565b5085935050505092915050565b600060808201905061356760008301876131ec565b818103602083015261357981866134f4565b9050818103604083015261358d8185613066565b905061359c60608301846131ec565b95945050505050565b600080fd5b600080fd5b7f4e487b7100000000000000000000000000000000000000000000000000000000600052604160045260246000fd5b6135e782613055565b810181811067ffffffffffffffff82111715613606576136056135af565b5b80604052505050565b6000613619612f37565b905061362582826135de565b919050565b600067ffffffffffffffff821115613645576136446135af565b5b61364e82613055565b9050602081019050919050565b82818337600083830152505050565b600061367d6136788461362a565b61360f565b905082815260208101848484011115613699576136986135aa565b5b6136a484828561365b565b509392505050565b600082601f8301126136c1576136c06135a5565b5b81356136d184826020860161366a565b91505092915050565b600080600080608085870312156136f4576136f3612f41565b5b600061370287828801613197565b945050602061371387828801613197565b9350506040613724878288016130e2565b925050606085013567ffffffffffffffff81111561374557613744612f46565b5b613751878288016136ac565b91505092959194509250565b6000806040838503121561377457613773612f41565b5b600061378285828601613197565b925050602061379385828601613197565b9150509250929050565b600067ffffffffffffffff8211156137b8576137b76135af565b5b6137c182613055565b9050602081019050919050565b60006137e16137dc8461379d565b61360f565b9050828152602081018484840111156137fd576137fc6135aa565b5b61380884828561365b565b509392505050565b600082601f830112613825576138246135a5565b5b81356138358482602086016137ce565b91505092915050565b6000806040838503121561385557613854612f41565b5b600061386385828601613197565b925050602083013567ffffffffffffffff81111561388457613883612f46565b5b61389085828601613810565b9150509250929050565b7f4e487b7100000000000000000000000000000000000000000000000000000000600052602260045260246000fd5b600060028204905060018216806138e157607f821691505b6020821081036138f4576138f361389a565b5b50919050565b7f4552433732313a20617070726f76656420717565727920666f72206e6f6e657860008201527f697374656e7420746f6b656e0000000000000000000000000000000000000000602082015250565b6000613956602c83613011565b9150613961826138fa565b604082019050919050565b6000602082019050818103600083015261398581613949565b9050919050565b7f4552433732313a20617070726f76616c20746f2063757272656e74206f776e6560008201527f7200000000000000000000000000000000000000000000000000000000000000602082015250565b60006139e8602183613011565b91506139f38261398c565b604082019050919050565b60006020820190508181036000830152613a17816139db565b9050919050565b7f4552433732313a20617070726f76652063616c6c6572206973206e6f74206f7760008201527f6e6572206e6f7220617070726f76656420666f7220616c6c0000000000000000602082015250565b6000613a7a603883613011565b9150613a8582613a1e565b604082019050919050565b60006020820190508181036000830152613aa981613a6d565b9050919050565b7f4e487b7100000000000000000000000000000000000000000000000000000000600052603260045260246000fd5b7f4e487b7100000000000000000000000000000000000000000000000000000000600052601160045260246000fd5b6000613b19826130c1565b9150613b24836130c1565b925082821015613b3757613b36613adf565b5b828203905092915050565b7f455243373231456e756d657261626c653a206f776e657220696e646578206f7560008201527f74206f6620626f756e6473000000000000000000000000000000000000000000602082015250565b6000613b9e602b83613011565b9150613ba982613b42565b604082019050919050565b60006020820190508181036000830152613bcd81613b91565b9050919050565b7f416363657373436f6e74726f6c3a2063616e206f6e6c792072656e6f756e636560008201527f20726f6c657320666f722073656c660000000000000000000000000000000000602082015250565b6000613c30602f83613011565b9150613c3b82613bd4565b604082019050919050565b60006020820190508181036000830152613c5f81613c23565b9050919050565b7f455243373231456e756d657261626c653a20676c6f62616c20696e646578206f60008201527f7574206f6620626f756e64730000000000000000000000000000000000000000602082015250565b6000613cc2602c83613011565b9150613ccd82613c66565b604082019050919050565b60006020820190508181036000830152613cf181613cb5565b9050919050565b7f4552433732313a206f776e657220717565727920666f72206e6f6e657869737460008201527f656e7420746f6b656e0000000000000000000000000000000000000000000000602082015250565b6000613d54602983613011565b9150613d5f82613cf8565b604082019050919050565b60006020820190508181036000830152613d8381613d47565b9050919050565b7f4552433732313a2062616c616e636520717565727920666f7220746865207a6560008201527f726f206164647265737300000000000000000000000000000000000000000000602082015250565b6000613de6602a83613011565b9150613df182613d8a565b604082019050919050565b60006020820190508181036000830152613e1581613dd9565b9050919050565b7f50686f746f20646f6573206e6f74206578697374000000000000000000000000600082015250565b6000613e52601483613011565b9150613e5d82613e1c565b602082019050919050565b60006020820190508181036000830152613e8181613e45565b9050919050565b7f4552433732313a207472616e736665722063616c6c6572206973206e6f74206f60008201527f776e6572206e6f7220617070726f766564000000000000000000000000000000602082015250565b6000613ee4603183613011565b9150613eef82613e88565b604082019050919050565b60006020820190508181036000830152613f1381613ed7565b9050919050565b7f4465616457616c6b6572576561706f6e3a2055524920717565727920666f722060008201527f6e6f6e6578697374656e7420746f6b656e000000000000000000000000000000602082015250565b6000613f76603183613011565b9150613f8182613f1a565b604082019050919050565b60006020820190508181036000830152613fa581613f69565b9050919050565b600081905092915050565b6000613fc282613006565b613fcc8185613fac565b9350613fdc818560208601613022565b80840191505092915050565b60008190508160005260206000209050919050565b6000815461400a816138c9565b6140148186613fac565b9450600182166000811461402f576001811461404057614073565b60ff19831686528186019350614073565b61404985613fe8565b60005b8381101561406b5781548189015260018201915060208101905061404c565b838801955050505b50505092915050565b60006140888285613fb7565b91506140948284613ffd565b91508190509392505050565b60006140ab826130c1565b91506140b6836130c1565b9250827fffffffffffffffffffffffffffffffffffffffffffffffffffffffffffffffff038211156140eb576140ea613adf565b5b828201905092915050565b600060408201905081810360008301526141108185613066565b905061411f60208301846131ec565b9392505050565b7f4552433732313a20617070726f766520746f2063616c6c657200000000000000600082015250565b600061415c601983613011565b915061416782614126565b602082019050919050565b6000602082019050818103600083015261418b8161414f565b9050919050565b7f4552433732313a206f70657261746f7220717565727920666f72206e6f6e657860008201527f697374656e7420746f6b656e0000000000000000000000000000000000000000602082015250565b60006141ee602c83613011565b91506141f982614192565b604082019050919050565b6000602082019050818103600083015261421d816141e1565b9050919050565b7f4552433732313a207472616e7366657220746f206e6f6e20455243373231526560008201527f63656976657220696d706c656d656e7465720000000000000000000000000000602082015250565b6000614280603283613011565b915061428b82614224565b604082019050919050565b600060208201905081810360008301526142af81614273565b9050919050565b7f4552433732313a206d696e7420746f20746865207a65726f2061646472657373600082015250565b60006142ec602083613011565b91506142f7826142b6565b602082019050919050565b6000602082019050818103600083015261431b816142df565b9050919050565b7f4552433732313a20746f6b656e20616c7265616479206d696e74656400000000600082015250565b6000614358601c83613011565b915061436382614322565b602082019050919050565b600060208201905081810360008301526143878161434b565b9050919050565b7f4552433732313a207472616e736665722066726f6d20696e636f72726563742060008201527f6f776e6572000000000000000000000000000000000000000000000000000000602082015250565b60006143ea602583613011565b91506143f58261438e565b604082019050919050565b60006020820190508181036000830152614419816143dd565b9050919050565b7f4552433732313a207472616e7366657220746f20746865207a65726f2061646460008201527f7265737300000000000000000000000000000000000000000000000000000000602082015250565b600061447c602483613011565b915061448782614420565b604082019050919050565b600060208201905081810360008301526144ab8161446f565b9050919050565b7f416363657373436f6e74726f6c3a206163636f756e7420000000000000000000600082015250565b60006144e8601783613fac565b91506144f3826144b2565b601782019050919050565b7f206973206d697373696e6720726f6c6520000000000000000000000000000000600082015250565b6000614534601183613fac565b915061453f826144fe565b601182019050919050565b6000614555826144db565b91506145618285613fb7565b915061456c82614527565b91506145788284613fb7565b91508190509392505050565b600081519050919050565b600082825260208201905092915050565b60006145ab82614584565b6145b5818561458f565b93506145c5818560208601613022565b6145ce81613055565b840191505092915050565b60006080820190506145ee6000830187613156565b6145fb6020830186613156565b61460860408301856131ec565b818103606083015261461a81846145a0565b905095945050505050565b60008151905061463481612f77565b92915050565b6000602082840312156146505761464f612f41565b5b600061465e84828501614625565b91505092915050565b6000614672826130c1565b915061467d836130c1565b9250817fffffffffffffffffffffffffffffffffffffffffffffffffffffffffffffffff04831182151516156146b6576146b5613adf565b5b828202905092915050565b60006146cc826130c1565b9150600082036146df576146de613adf565b5b600182039050919050565b7f537472696e67733a20686578206c656e67746820696e73756666696369656e74600082015250565b6000614720602083613011565b915061472b826146ea565b602082019050919050565b6000602082019050818103600083015261474f81614713565b9050919050565b7f4e487b7100000000000000000000000000000000000000000000000000000000600052603160045260246000fd5b7f4552433732315061757361626c653a20746f6b656e207472616e73666572207760008201527f68696c6520706175736564000000000000000000000000000000000000000000602082015250565b60006147e1602b83613011565b91506147ec82614785565b604082019050919050565b60006020820190508181036000830152614810816147d4565b905091905056fea26469706673582212203646baa5af9bee866c4567e4d060be144606cda89ee306e7960da06f20bedd0264736f6c634300080d0033",
  "immutableReferences": {},
  "source": "pragma solidity ^0.8.13;\n\nimport \"@openzeppelin/contracts/token/ERC721/ERC721.sol\";\nimport \"@openzeppelin/contracts/token/ERC721/extensions/ERC721Enumerable.sol\";\nimport \"@openzeppelin/contracts/utils/Counters.sol\";\nimport \"@openzeppelin/contracts/access/AccessControlEnumerable.sol\";\nimport \"@openzeppelin/contracts/token/ERC721/extensions/ERC721Pausable.sol\";\n\n//import \"./ERC721/ERC721.sol\";\n//import \"./ERC721/ERC721Enumerable.sol\";\n\ncontract Gallery is ERC721, ERC721Enumerable, ERC721Pausable, AccessControlEnumerable {\n    event PhotoUploaded (uint indexed tokenId, string metadataURI, uint256 timestamp);\n\n    mapping(uint256 => PhotoData) private _photoList;\n\n    struct PhotoData {\n        uint256 tokenId;\n        address[] ownerHistory;\n        string metadataURI;\n        uint256 timestamp;\n    }\n\n    string private _baseUri;\n\n    constructor(string memory tokenName, string memory symbol, string memory baseUri) ERC721(tokenName, symbol) {\n        _baseUri = baseUri;\n    }\n\n    function tokenURI(uint256 tokenId) public view override returns (string memory) {\n        require(_exists(tokenId), \"DeadWalkerWeapon: URI query for nonexistent token\");\n\n        string memory baseURI = _baseURI();\n        return bytes(baseURI).length > 0 ? string(abi.encodePacked(baseURI, _photoList[tokenId].metadataURI)) : \"\";\n    }\n\n    function uploadPhoto(address owner, string memory metadataURI) public returns (uint256) {\n        uint256 tokenId = totalSupply() + 1;\n\n        _mint(msg.sender, tokenId);\n        tokenURI(tokenId);\n\n        address[] memory ownerHistory;\n\n        PhotoData memory newPhotoData = PhotoData({\n        tokenId: tokenId,\n        ownerHistory: ownerHistory,\n        metadataURI: metadataURI,\n        timestamp : block.timestamp\n        });\n\n        _photoList[tokenId] = newPhotoData;\n        _photoList[tokenId].ownerHistory.push(msg.sender);\n\n        emit PhotoUploaded(tokenId, metadataURI, block.timestamp);\n\n        return tokenId;\n    }\n\n    function transferOwnership(uint256 tokenId, address to) public returns(uint, address, address, address) {\n        transferFrom(msg.sender, to, tokenId);\n        uint ownerHistoryLength = _photoList[tokenId].ownerHistory.length;\n        return (\n        _photoList[tokenId].tokenId,\n        _photoList[tokenId].ownerHistory[0],\n        _photoList[tokenId].ownerHistory[ownerHistoryLength-2],\n        _photoList[tokenId].ownerHistory[ownerHistoryLength-1]);\n    }\n\n    function transferFrom(address from, address to, uint256 tokenId) override(ERC721, IERC721) public {\n        super.transferFrom(from, to, tokenId);\n        _photoList[tokenId].ownerHistory.push(to);\n    }\n\n    function getTotalPhotoCount () public view returns (uint) {\n        return totalSupply();\n    }\n\n    function getPhoto(uint tokenId) public view returns(uint256, address[] memory, string memory, uint256) {\n        require(_photoList[tokenId].tokenId != 0, \"Photo does not exist\");\n        return (\n            _photoList[tokenId].tokenId,\n            _photoList[tokenId].ownerHistory,\n            _photoList[tokenId].metadataURI,\n            _photoList[tokenId].timestamp);\n    }\n\n    function _baseURI() internal view override returns (string memory) {\n        return _baseUri;\n    }\n\n    function _beforeTokenTransfer(\n        address from,\n        address to,\n        uint256 tokenId\n    ) internal override(ERC721, ERC721Enumerable, ERC721Pausable) {\n        super._beforeTokenTransfer(from, to, tokenId);\n    }\n\n    function supportsInterface(bytes4 interfaceId)\n    public\n    view\n    override(AccessControlEnumerable, ERC721, ERC721Enumerable)\n    returns (bool)\n    {\n        return super.supportsInterface(interfaceId);\n    }\n}",
  "sourcePath": "/Users/ellerhew/Desktop/coding/personal/gallery/contracts/Gallery.sol",
  "compiler": {
    "name": "solc",
    "version": "0.8.13+commit.abaa5c0e.Emscripten.clang"
  },
  "schemaVersion": "3.4.7",
  "updatedAt": "2022-06-28T13:42:05.602Z",
  "networkType": "ethereum",
  "devdoc": {
    "kind": "dev",
    "methods": {
      "approve(address,uint256)": {
        "details": "See {IERC721-approve}."
      },
      "balanceOf(address)": {
        "details": "See {IERC721-balanceOf}."
      },
      "getApproved(uint256)": {
        "details": "See {IERC721-getApproved}."
      },
      "getRoleAdmin(bytes32)": {
        "details": "Returns the admin role that controls `role`. See {grantRole} and {revokeRole}. To change a role's admin, use {_setRoleAdmin}."
      },
      "getRoleMember(bytes32,uint256)": {
        "details": "Returns one of the accounts that have `role`. `index` must be a value between 0 and {getRoleMemberCount}, non-inclusive. Role bearers are not sorted in any particular way, and their ordering may change at any point. WARNING: When using {getRoleMember} and {getRoleMemberCount}, make sure you perform all queries on the same block. See the following https://forum.openzeppelin.com/t/iterating-over-elements-on-enumerableset-in-openzeppelin-contracts/2296[forum post] for more information."
      },
      "getRoleMemberCount(bytes32)": {
        "details": "Returns the number of accounts that have `role`. Can be used together with {getRoleMember} to enumerate all bearers of a role."
      },
      "grantRole(bytes32,address)": {
        "details": "Grants `role` to `account`. If `account` had not been already granted `role`, emits a {RoleGranted} event. Requirements: - the caller must have ``role``'s admin role."
      },
      "hasRole(bytes32,address)": {
        "details": "Returns `true` if `account` has been granted `role`."
      },
      "isApprovedForAll(address,address)": {
        "details": "See {IERC721-isApprovedForAll}."
      },
      "name()": {
        "details": "See {IERC721Metadata-name}."
      },
      "ownerOf(uint256)": {
        "details": "See {IERC721-ownerOf}."
      },
      "paused()": {
        "details": "Returns true if the contract is paused, and false otherwise."
      },
      "renounceRole(bytes32,address)": {
        "details": "Revokes `role` from the calling account. Roles are often managed via {grantRole} and {revokeRole}: this function's purpose is to provide a mechanism for accounts to lose their privileges if they are compromised (such as when a trusted device is misplaced). If the calling account had been revoked `role`, emits a {RoleRevoked} event. Requirements: - the caller must be `account`."
      },
      "revokeRole(bytes32,address)": {
        "details": "Revokes `role` from `account`. If `account` had been granted `role`, emits a {RoleRevoked} event. Requirements: - the caller must have ``role``'s admin role."
      },
      "safeTransferFrom(address,address,uint256)": {
        "details": "See {IERC721-safeTransferFrom}."
      },
      "safeTransferFrom(address,address,uint256,bytes)": {
        "details": "See {IERC721-safeTransferFrom}."
      },
      "setApprovalForAll(address,bool)": {
        "details": "See {IERC721-setApprovalForAll}."
      },
      "symbol()": {
        "details": "See {IERC721Metadata-symbol}."
      },
      "tokenByIndex(uint256)": {
        "details": "See {IERC721Enumerable-tokenByIndex}."
      },
      "tokenOfOwnerByIndex(address,uint256)": {
        "details": "See {IERC721Enumerable-tokenOfOwnerByIndex}."
      },
      "tokenURI(uint256)": {
        "details": "See {IERC721Metadata-tokenURI}."
      },
      "totalSupply()": {
        "details": "See {IERC721Enumerable-totalSupply}."
      }
    },
    "version": 1
  },
  "userdoc": {
    "kind": "user",
    "methods": {},
    "version": 1
  }
}