{
  "contractName": "Gallery",
  "abi": [
    {
      "inputs": [
        {
          "internalType": "string",
          "name": "tokenName",
          "type": "string"
        },
        {
          "internalType": "string",
          "name": "symbol",
          "type": "string"
        },
        {
          "internalType": "string",
          "name": "baseUri",
          "type": "string"
        }
      ],
      "stateMutability": "nonpayable",
      "type": "constructor"
    },
    {
      "anonymous": false,
      "inputs": [
        {
          "indexed": true,
          "internalType": "address",
          "name": "owner",
          "type": "address"
        },
        {
          "indexed": true,
          "internalType": "address",
          "name": "approved",
          "type": "address"
        },
        {
          "indexed": true,
          "internalType": "uint256",
          "name": "tokenId",
          "type": "uint256"
        }
      ],
      "name": "Approval",
      "type": "event"
    },
    {
      "anonymous": false,
      "inputs": [
        {
          "indexed": true,
          "internalType": "address",
          "name": "owner",
          "type": "address"
        },
        {
          "indexed": true,
          "internalType": "address",
          "name": "operator",
          "type": "address"
        },
        {
          "indexed": false,
          "internalType": "bool",
          "name": "approved",
          "type": "bool"
        }
      ],
      "name": "ApprovalForAll",
      "type": "event"
    },
    {
      "anonymous": false,
      "inputs": [
        {
          "indexed": false,
          "internalType": "address",
          "name": "account",
          "type": "address"
        }
      ],
      "name": "Paused",
      "type": "event"
    },
    {
      "anonymous": false,
      "inputs": [
        {
          "indexed": true,
          "internalType": "uint256",
          "name": "tokenId",
          "type": "uint256"
        },
        {
          "indexed": false,
          "internalType": "bytes",
          "name": "photo",
          "type": "bytes"
        },
        {
          "indexed": false,
          "internalType": "string",
          "name": "title",
          "type": "string"
        },
        {
          "indexed": false,
          "internalType": "string",
          "name": "location",
          "type": "string"
        },
        {
          "indexed": false,
          "internalType": "string",
          "name": "description",
          "type": "string"
        },
        {
          "indexed": false,
          "internalType": "uint256",
          "name": "timestamp",
          "type": "uint256"
        }
      ],
      "name": "PhotoUploaded",
      "type": "event"
    },
    {
      "anonymous": false,
      "inputs": [
        {
          "indexed": true,
          "internalType": "bytes32",
          "name": "role",
          "type": "bytes32"
        },
        {
          "indexed": true,
          "internalType": "bytes32",
          "name": "previousAdminRole",
          "type": "bytes32"
        },
        {
          "indexed": true,
          "internalType": "bytes32",
          "name": "newAdminRole",
          "type": "bytes32"
        }
      ],
      "name": "RoleAdminChanged",
      "type": "event"
    },
    {
      "anonymous": false,
      "inputs": [
        {
          "indexed": true,
          "internalType": "bytes32",
          "name": "role",
          "type": "bytes32"
        },
        {
          "indexed": true,
          "internalType": "address",
          "name": "account",
          "type": "address"
        },
        {
          "indexed": true,
          "internalType": "address",
          "name": "sender",
          "type": "address"
        }
      ],
      "name": "RoleGranted",
      "type": "event"
    },
    {
      "anonymous": false,
      "inputs": [
        {
          "indexed": true,
          "internalType": "bytes32",
          "name": "role",
          "type": "bytes32"
        },
        {
          "indexed": true,
          "internalType": "address",
          "name": "account",
          "type": "address"
        },
        {
          "indexed": true,
          "internalType": "address",
          "name": "sender",
          "type": "address"
        }
      ],
      "name": "RoleRevoked",
      "type": "event"
    },
    {
      "anonymous": false,
      "inputs": [
        {
          "indexed": true,
          "internalType": "address",
          "name": "from",
          "type": "address"
        },
        {
          "indexed": true,
          "internalType": "address",
          "name": "to",
          "type": "address"
        },
        {
          "indexed": true,
          "internalType": "uint256",
          "name": "tokenId",
          "type": "uint256"
        }
      ],
      "name": "Transfer",
      "type": "event"
    },
    {
      "anonymous": false,
      "inputs": [
        {
          "indexed": false,
          "internalType": "address",
          "name": "account",
          "type": "address"
        }
      ],
      "name": "Unpaused",
      "type": "event"
    },
    {
      "inputs": [],
      "name": "DEFAULT_ADMIN_ROLE",
      "outputs": [
        {
          "internalType": "bytes32",
          "name": "",
          "type": "bytes32"
        }
      ],
      "stateMutability": "view",
      "type": "function",
      "constant": true
    },
    {
      "inputs": [
        {
          "internalType": "address",
          "name": "to",
          "type": "address"
        },
        {
          "internalType": "uint256",
          "name": "tokenId",
          "type": "uint256"
        }
      ],
      "name": "approve",
      "outputs": [],
      "stateMutability": "nonpayable",
      "type": "function"
    },
    {
      "inputs": [
        {
          "internalType": "address",
          "name": "owner",
          "type": "address"
        }
      ],
      "name": "balanceOf",
      "outputs": [
        {
          "internalType": "uint256",
          "name": "",
          "type": "uint256"
        }
      ],
      "stateMutability": "view",
      "type": "function",
      "constant": true
    },
    {
      "inputs": [
        {
          "internalType": "uint256",
          "name": "tokenId",
          "type": "uint256"
        }
      ],
      "name": "getApproved",
      "outputs": [
        {
          "internalType": "address",
          "name": "",
          "type": "address"
        }
      ],
      "stateMutability": "view",
      "type": "function",
      "constant": true
    },
    {
      "inputs": [
        {
          "internalType": "bytes32",
          "name": "role",
          "type": "bytes32"
        }
      ],
      "name": "getRoleAdmin",
      "outputs": [
        {
          "internalType": "bytes32",
          "name": "",
          "type": "bytes32"
        }
      ],
      "stateMutability": "view",
      "type": "function",
      "constant": true
    },
    {
      "inputs": [
        {
          "internalType": "bytes32",
          "name": "role",
          "type": "bytes32"
        },
        {
          "internalType": "uint256",
          "name": "index",
          "type": "uint256"
        }
      ],
      "name": "getRoleMember",
      "outputs": [
        {
          "internalType": "address",
          "name": "",
          "type": "address"
        }
      ],
      "stateMutability": "view",
      "type": "function",
      "constant": true
    },
    {
      "inputs": [
        {
          "internalType": "bytes32",
          "name": "role",
          "type": "bytes32"
        }
      ],
      "name": "getRoleMemberCount",
      "outputs": [
        {
          "internalType": "uint256",
          "name": "",
          "type": "uint256"
        }
      ],
      "stateMutability": "view",
      "type": "function",
      "constant": true
    },
    {
      "inputs": [
        {
          "internalType": "bytes32",
          "name": "role",
          "type": "bytes32"
        },
        {
          "internalType": "address",
          "name": "account",
          "type": "address"
        }
      ],
      "name": "grantRole",
      "outputs": [],
      "stateMutability": "nonpayable",
      "type": "function"
    },
    {
      "inputs": [
        {
          "internalType": "bytes32",
          "name": "role",
          "type": "bytes32"
        },
        {
          "internalType": "address",
          "name": "account",
          "type": "address"
        }
      ],
      "name": "hasRole",
      "outputs": [
        {
          "internalType": "bool",
          "name": "",
          "type": "bool"
        }
      ],
      "stateMutability": "view",
      "type": "function",
      "constant": true
    },
    {
      "inputs": [
        {
          "internalType": "address",
          "name": "owner",
          "type": "address"
        },
        {
          "internalType": "address",
          "name": "operator",
          "type": "address"
        }
      ],
      "name": "isApprovedForAll",
      "outputs": [
        {
          "internalType": "bool",
          "name": "",
          "type": "bool"
        }
      ],
      "stateMutability": "view",
      "type": "function",
      "constant": true
    },
    {
      "inputs": [],
      "name": "name",
      "outputs": [
        {
          "internalType": "string",
          "name": "",
          "type": "string"
        }
      ],
      "stateMutability": "view",
      "type": "function",
      "constant": true
    },
    {
      "inputs": [
        {
          "internalType": "uint256",
          "name": "tokenId",
          "type": "uint256"
        }
      ],
      "name": "ownerOf",
      "outputs": [
        {
          "internalType": "address",
          "name": "",
          "type": "address"
        }
      ],
      "stateMutability": "view",
      "type": "function",
      "constant": true
    },
    {
      "inputs": [],
      "name": "paused",
      "outputs": [
        {
          "internalType": "bool",
          "name": "",
          "type": "bool"
        }
      ],
      "stateMutability": "view",
      "type": "function",
      "constant": true
    },
    {
      "inputs": [
        {
          "internalType": "bytes32",
          "name": "role",
          "type": "bytes32"
        },
        {
          "internalType": "address",
          "name": "account",
          "type": "address"
        }
      ],
      "name": "renounceRole",
      "outputs": [],
      "stateMutability": "nonpayable",
      "type": "function"
    },
    {
      "inputs": [
        {
          "internalType": "bytes32",
          "name": "role",
          "type": "bytes32"
        },
        {
          "internalType": "address",
          "name": "account",
          "type": "address"
        }
      ],
      "name": "revokeRole",
      "outputs": [],
      "stateMutability": "nonpayable",
      "type": "function"
    },
    {
      "inputs": [
        {
          "internalType": "address",
          "name": "from",
          "type": "address"
        },
        {
          "internalType": "address",
          "name": "to",
          "type": "address"
        },
        {
          "internalType": "uint256",
          "name": "tokenId",
          "type": "uint256"
        }
      ],
      "name": "safeTransferFrom",
      "outputs": [],
      "stateMutability": "nonpayable",
      "type": "function"
    },
    {
      "inputs": [
        {
          "internalType": "address",
          "name": "from",
          "type": "address"
        },
        {
          "internalType": "address",
          "name": "to",
          "type": "address"
        },
        {
          "internalType": "uint256",
          "name": "tokenId",
          "type": "uint256"
        },
        {
          "internalType": "bytes",
          "name": "_data",
          "type": "bytes"
        }
      ],
      "name": "safeTransferFrom",
      "outputs": [],
      "stateMutability": "nonpayable",
      "type": "function"
    },
    {
      "inputs": [
        {
          "internalType": "address",
          "name": "operator",
          "type": "address"
        },
        {
          "internalType": "bool",
          "name": "approved",
          "type": "bool"
        }
      ],
      "name": "setApprovalForAll",
      "outputs": [],
      "stateMutability": "nonpayable",
      "type": "function"
    },
    {
      "inputs": [],
      "name": "symbol",
      "outputs": [
        {
          "internalType": "string",
          "name": "",
          "type": "string"
        }
      ],
      "stateMutability": "view",
      "type": "function",
      "constant": true
    },
    {
      "inputs": [
        {
          "internalType": "uint256",
          "name": "index",
          "type": "uint256"
        }
      ],
      "name": "tokenByIndex",
      "outputs": [
        {
          "internalType": "uint256",
          "name": "",
          "type": "uint256"
        }
      ],
      "stateMutability": "view",
      "type": "function",
      "constant": true
    },
    {
      "inputs": [
        {
          "internalType": "address",
          "name": "owner",
          "type": "address"
        },
        {
          "internalType": "uint256",
          "name": "index",
          "type": "uint256"
        }
      ],
      "name": "tokenOfOwnerByIndex",
      "outputs": [
        {
          "internalType": "uint256",
          "name": "",
          "type": "uint256"
        }
      ],
      "stateMutability": "view",
      "type": "function",
      "constant": true
    },
    {
      "inputs": [],
      "name": "totalSupply",
      "outputs": [
        {
          "internalType": "uint256",
          "name": "",
          "type": "uint256"
        }
      ],
      "stateMutability": "view",
      "type": "function",
      "constant": true
    },
    {
      "inputs": [
        {
          "internalType": "address",
          "name": "from",
          "type": "address"
        },
        {
          "internalType": "address",
          "name": "to",
          "type": "address"
        },
        {
          "internalType": "uint256",
          "name": "tokenId",
          "type": "uint256"
        }
      ],
      "name": "transferFrom",
      "outputs": [],
      "stateMutability": "nonpayable",
      "type": "function"
    },
    {
      "inputs": [
        {
          "internalType": "uint256",
          "name": "tokenId",
          "type": "uint256"
        },
        {
          "internalType": "string",
          "name": "metadataURI",
          "type": "string"
        }
      ],
      "name": "tokenURI",
      "outputs": [
        {
          "internalType": "string",
          "name": "",
          "type": "string"
        }
      ],
      "stateMutability": "view",
      "type": "function",
      "constant": true
    },
    {
      "inputs": [
        {
          "internalType": "uint256",
          "name": "tokenId",
          "type": "uint256"
        }
      ],
      "name": "tokenURI",
      "outputs": [
        {
          "internalType": "string",
          "name": "",
          "type": "string"
        }
      ],
      "stateMutability": "view",
      "type": "function",
      "constant": true
    },
    {
      "inputs": [
        {
          "internalType": "address",
          "name": "owner",
          "type": "address"
        },
        {
          "internalType": "string",
          "name": "metadataURI",
          "type": "string"
        }
      ],
      "name": "uploadPhoto",
      "outputs": [
        {
          "internalType": "uint256",
          "name": "",
          "type": "uint256"
        }
      ],
      "stateMutability": "nonpayable",
      "type": "function"
    },
    {
      "inputs": [
        {
          "internalType": "bytes4",
          "name": "interfaceId",
          "type": "bytes4"
        }
      ],
      "name": "supportsInterface",
      "outputs": [
        {
          "internalType": "bool",
          "name": "",
          "type": "bool"
        }
      ],
      "stateMutability": "view",
      "type": "function",
      "constant": true
    }
  ],
  "bytecode": "0x60806040523480156200001157600080fd5b506040516200471f3803806200471f8339818101604052810190620000379190620002f7565b8282816000908051906020019062000051929190620000aa565b5080600190805190602001906200006a929190620000aa565b5050506000600a60006101000a81548160ff02191690831515021790555080600e9080519060200190620000a0929190620000aa565b5050505062000414565b828054620000b890620003df565b90600052602060002090601f016020900481019282620000dc576000855562000128565b82601f10620000f757805160ff191683800117855562000128565b8280016001018555821562000128579182015b82811115620001275782518255916020019190600101906200010a565b5b5090506200013791906200013b565b5090565b5b80821115620001565760008160009055506001016200013c565b5090565b6000604051905090565b600080fd5b600080fd5b600080fd5b600080fd5b6000601f19601f8301169050919050565b7f4e487b7100000000000000000000000000000000000000000000000000000000600052604160045260246000fd5b620001c38262000178565b810181811067ffffffffffffffff82111715620001e557620001e462000189565b5b80604052505050565b6000620001fa6200015a565b9050620002088282620001b8565b919050565b600067ffffffffffffffff8211156200022b576200022a62000189565b5b620002368262000178565b9050602081019050919050565b60005b838110156200026357808201518184015260208101905062000246565b8381111562000273576000848401525b50505050565b6000620002906200028a846200020d565b620001ee565b905082815260208101848484011115620002af57620002ae62000173565b5b620002bc84828562000243565b509392505050565b600082601f830112620002dc57620002db6200016e565b5b8151620002ee84826020860162000279565b91505092915050565b60008060006060848603121562000313576200031262000164565b5b600084015167ffffffffffffffff81111562000334576200033362000169565b5b6200034286828701620002c4565b935050602084015167ffffffffffffffff81111562000366576200036562000169565b5b6200037486828701620002c4565b925050604084015167ffffffffffffffff81111562000398576200039762000169565b5b620003a686828701620002c4565b9150509250925092565b7f4e487b7100000000000000000000000000000000000000000000000000000000600052602260045260246000fd5b60006002820490506001821680620003f857607f821691505b6020821081036200040e576200040d620003b0565b5b50919050565b6142fb80620004246000396000f3fe608060405234801561001057600080fd5b50600436106101a95760003560e01c80635c975abb116100f9578063a22cb46511610097578063ca15c87311610071578063ca15c87314610518578063d547741f14610548578063e985e9c514610564578063f371a1ce14610594576101a9565b8063a22cb465146104b0578063b88d4fde146104cc578063c87b56dd146104e8576101a9565b80639010d07c116100d35780639010d07c1461041457806391d148541461044457806395d89b4114610474578063a217fddf14610492576101a9565b80635c975abb146103965780636352211e146103b457806370a08231146103e4576101a9565b8063248a9ca31161016657806336568abe1161014057806336568abe146102fe57806341dcf4541461031a57806342842e0e1461034a5780634f6ccce714610366576101a9565b8063248a9ca3146102825780632f2ff15d146102b25780632f745c59146102ce576101a9565b806301ffc9a7146101ae57806306fdde03146101de578063081812fc146101fc578063095ea7b31461022c57806318160ddd1461024857806323b872dd14610266575b600080fd5b6101c860048036038101906101c39190612ad5565b6105c4565b6040516101d59190612b1d565b60405180910390f35b6101e66105d6565b6040516101f39190612bd1565b60405180910390f35b61021660048036038101906102119190612c29565b610668565b6040516102239190612c97565b60405180910390f35b61024660048036038101906102419190612cde565b6106ed565b005b610250610804565b60405161025d9190612d2d565b60405180910390f35b610280600480360381019061027b9190612d48565b610811565b005b61029c60048036038101906102979190612dd1565b610871565b6040516102a99190612e0d565b60405180910390f35b6102cc60048036038101906102c79190612e28565b610891565b005b6102e860048036038101906102e39190612cde565b6108b2565b6040516102f59190612d2d565b60405180910390f35b61031860048036038101906103139190612e28565b610957565b005b610334600480360381019061032f9190612f9d565b6109da565b6040516103419190612bd1565b60405180910390f35b610364600480360381019061035f9190612d48565b610a7a565b005b610380600480360381019061037b9190612c29565b610a9a565b60405161038d9190612d2d565b60405180910390f35b61039e610b0b565b6040516103ab9190612b1d565b60405180910390f35b6103ce60048036038101906103c99190612c29565b610b22565b6040516103db9190612c97565b60405180910390f35b6103fe60048036038101906103f99190612ff9565b610bd3565b60405161040b9190612d2d565b60405180910390f35b61042e60048036038101906104299190613026565b610c8a565b60405161043b9190612c97565b60405180910390f35b61045e60048036038101906104599190612e28565b610cb9565b60405161046b9190612b1d565b60405180910390f35b61047c610d24565b6040516104899190612bd1565b60405180910390f35b61049a610db6565b6040516104a79190612e0d565b60405180910390f35b6104ca60048036038101906104c59190613092565b610dbd565b005b6104e660048036038101906104e19190613173565b610dd3565b005b61050260048036038101906104fd9190612c29565b610e35565b60405161050f9190612bd1565b60405180910390f35b610532600480360381019061052d9190612dd1565b610edc565b60405161053f9190612d2d565b60405180910390f35b610562600480360381019061055d9190612e28565b610f00565b005b61057e600480360381019061057991906131f6565b610f21565b60405161058b9190612b1d565b60405180910390f35b6105ae60048036038101906105a99190613236565b610fb5565b6040516105bb9190612d2d565b60405180910390f35b60006105cf82610fed565b9050919050565b6060600080546105e5906132c1565b80601f0160208091040260200160405190810160405280929190818152602001828054610611906132c1565b801561065e5780601f106106335761010080835404028352916020019161065e565b820191906000526020600020905b81548152906001019060200180831161064157829003601f168201915b5050505050905090565b600061067382611067565b6106b2576040517f08c379a00000000000000000000000000000000000000000000000000000000081526004016106a990613364565b60405180910390fd5b6004600083815260200190815260200160002060009054906101000a900473ffffffffffffffffffffffffffffffffffffffff169050919050565b60006106f882610b22565b90508073ffffffffffffffffffffffffffffffffffffffff168373ffffffffffffffffffffffffffffffffffffffff1603610768576040517f08c379a000000000000000000000000000000000000000000000000000000000815260040161075f906133f6565b60405180910390fd5b8073ffffffffffffffffffffffffffffffffffffffff166107876110d3565b73ffffffffffffffffffffffffffffffffffffffff1614806107b657506107b5816107b06110d3565b610f21565b5b6107f5576040517f08c379a00000000000000000000000000000000000000000000000000000000081526004016107ec90613488565b60405180910390fd5b6107ff83836110db565b505050565b6000600880549050905090565b61082261081c6110d3565b82611194565b610861576040517f08c379a00000000000000000000000000000000000000000000000000000000081526004016108589061351a565b60405180910390fd5b61086c838383611272565b505050565b6000600b6000838152602001908152602001600020600101549050919050565b61089a82610871565b6108a3816114d8565b6108ad83836114ec565b505050565b60006108bd83610bd3565b82106108fe576040517f08c379a00000000000000000000000000000000000000000000000000000000081526004016108f5906135ac565b60405180910390fd5b600660008473ffffffffffffffffffffffffffffffffffffffff1673ffffffffffffffffffffffffffffffffffffffff168152602001908152602001600020600083815260200190815260200160002054905092915050565b61095f6110d3565b73ffffffffffffffffffffffffffffffffffffffff168173ffffffffffffffffffffffffffffffffffffffff16146109cc576040517f08c379a00000000000000000000000000000000000000000000000000000000081526004016109c39061363e565b60405180910390fd5b6109d68282611520565b5050565b60606109e583611067565b610a24576040517f08c379a0000000000000000000000000000000000000000000000000000000008152600401610a1b906136d0565b60405180910390fd5b6000610a2e611554565b90506000815111610a4e5760405180602001604052806000815250610a71565b8083604051602001610a61929190613778565b6040516020818303038152906040525b91505092915050565b610a9583838360405180602001604052806000815250610dd3565b505050565b6000610aa4610804565b8210610ae5576040517f08c379a0000000000000000000000000000000000000000000000000000000008152600401610adc90613819565b60405180910390fd5b60088281548110610af957610af8613839565b5b90600052602060002001549050919050565b6000600a60009054906101000a900460ff16905090565b6000806002600084815260200190815260200160002060009054906101000a900473ffffffffffffffffffffffffffffffffffffffff169050600073ffffffffffffffffffffffffffffffffffffffff168173ffffffffffffffffffffffffffffffffffffffff1603610bca576040517f08c379a0000000000000000000000000000000000000000000000000000000008152600401610bc1906138da565b60405180910390fd5b80915050919050565b60008073ffffffffffffffffffffffffffffffffffffffff168273ffffffffffffffffffffffffffffffffffffffff1603610c43576040517f08c379a0000000000000000000000000000000000000000000000000000000008152600401610c3a9061396c565b60405180910390fd5b600360008373ffffffffffffffffffffffffffffffffffffffff1673ffffffffffffffffffffffffffffffffffffffff168152602001908152602001600020549050919050565b6000610cb182600c60008681526020019081526020016000206115e690919063ffffffff16565b905092915050565b6000600b600084815260200190815260200160002060000160008373ffffffffffffffffffffffffffffffffffffffff1673ffffffffffffffffffffffffffffffffffffffff16815260200190815260200160002060009054906101000a900460ff16905092915050565b606060018054610d33906132c1565b80601f0160208091040260200160405190810160405280929190818152602001828054610d5f906132c1565b8015610dac5780601f10610d8157610100808354040283529160200191610dac565b820191906000526020600020905b815481529060010190602001808311610d8f57829003601f168201915b5050505050905090565b6000801b81565b610dcf610dc86110d3565b8383611600565b5050565b610de4610dde6110d3565b83611194565b610e23576040517f08c379a0000000000000000000000000000000000000000000000000000000008152600401610e1a9061351a565b60405180910390fd5b610e2f8484848461176c565b50505050565b6060610e4082611067565b610e7f576040517f08c379a0000000000000000000000000000000000000000000000000000000008152600401610e76906139fe565b60405180910390fd5b6000610e89611554565b90506000815111610ea95760405180602001604052806000815250610ed4565b80610eb3846117c8565b604051602001610ec4929190613a1e565b6040516020818303038152906040525b915050919050565b6000610ef9600c6000848152602001908152602001600020611928565b9050919050565b610f0982610871565b610f12816114d8565b610f1c8383611520565b505050565b6000600560008473ffffffffffffffffffffffffffffffffffffffff1673ffffffffffffffffffffffffffffffffffffffff16815260200190815260200160002060008373ffffffffffffffffffffffffffffffffffffffff1673ffffffffffffffffffffffffffffffffffffffff16815260200190815260200160002060009054906101000a900460ff16905092915050565b6000806001610fc2610804565b610fcc9190613a71565b9050610fd8338261193d565b610fe281846109da565b508091505092915050565b60007f5a05180f000000000000000000000000000000000000000000000000000000007bffffffffffffffffffffffffffffffffffffffffffffffffffffffff1916827bffffffffffffffffffffffffffffffffffffffffffffffffffffffff19161480611060575061105f82611b16565b5b9050919050565b60008073ffffffffffffffffffffffffffffffffffffffff166002600084815260200190815260200160002060009054906101000a900473ffffffffffffffffffffffffffffffffffffffff1673ffffffffffffffffffffffffffffffffffffffff1614159050919050565b600033905090565b816004600083815260200190815260200160002060006101000a81548173ffffffffffffffffffffffffffffffffffffffff021916908373ffffffffffffffffffffffffffffffffffffffff160217905550808273ffffffffffffffffffffffffffffffffffffffff1661114e83610b22565b73ffffffffffffffffffffffffffffffffffffffff167f8c5be1e5ebec7d5bd14f71427d1e84f3dd0314c0f7b2291e5b200ac8c7c3b92560405160405180910390a45050565b600061119f82611067565b6111de576040517f08c379a00000000000000000000000000000000000000000000000000000000081526004016111d590613b39565b60405180910390fd5b60006111e983610b22565b90508073ffffffffffffffffffffffffffffffffffffffff168473ffffffffffffffffffffffffffffffffffffffff16148061122b575061122a8185610f21565b5b8061126957508373ffffffffffffffffffffffffffffffffffffffff1661125184610668565b73ffffffffffffffffffffffffffffffffffffffff16145b91505092915050565b8273ffffffffffffffffffffffffffffffffffffffff1661129282610b22565b73ffffffffffffffffffffffffffffffffffffffff16146112e8576040517f08c379a00000000000000000000000000000000000000000000000000000000081526004016112df90613bcb565b60405180910390fd5b600073ffffffffffffffffffffffffffffffffffffffff168273ffffffffffffffffffffffffffffffffffffffff1603611357576040517f08c379a000000000000000000000000000000000000000000000000000000000815260040161134e90613c5d565b60405180910390fd5b611362838383611b90565b61136d6000826110db565b6001600360008573ffffffffffffffffffffffffffffffffffffffff1673ffffffffffffffffffffffffffffffffffffffff16815260200190815260200160002060008282546113bd9190613c7d565b925050819055506001600360008473ffffffffffffffffffffffffffffffffffffffff1673ffffffffffffffffffffffffffffffffffffffff16815260200190815260200160002060008282546114149190613a71565b92505081905550816002600083815260200190815260200160002060006101000a81548173ffffffffffffffffffffffffffffffffffffffff021916908373ffffffffffffffffffffffffffffffffffffffff160217905550808273ffffffffffffffffffffffffffffffffffffffff168473ffffffffffffffffffffffffffffffffffffffff167fddf252ad1be2c89b69c2b068fc378daa952ba7f163c4a11628f55a4df523b3ef60405160405180910390a46114d3838383611ba0565b505050565b6114e9816114e46110d3565b611ba5565b50565b6114f68282611c42565b61151b81600c6000858152602001908152602001600020611d2390919063ffffffff16565b505050565b61152a8282611d53565b61154f81600c6000858152602001908152602001600020611e3590919063ffffffff16565b505050565b6060600e8054611563906132c1565b80601f016020809104026020016040519081016040528092919081815260200182805461158f906132c1565b80156115dc5780601f106115b1576101008083540402835291602001916115dc565b820191906000526020600020905b8154815290600101906020018083116115bf57829003601f168201915b5050505050905090565b60006115f58360000183611e65565b60001c905092915050565b8173ffffffffffffffffffffffffffffffffffffffff168373ffffffffffffffffffffffffffffffffffffffff160361166e576040517f08c379a000000000000000000000000000000000000000000000000000000000815260040161166590613cfd565b60405180910390fd5b80600560008573ffffffffffffffffffffffffffffffffffffffff1673ffffffffffffffffffffffffffffffffffffffff16815260200190815260200160002060008473ffffffffffffffffffffffffffffffffffffffff1673ffffffffffffffffffffffffffffffffffffffff16815260200190815260200160002060006101000a81548160ff0219169083151502179055508173ffffffffffffffffffffffffffffffffffffffff168373ffffffffffffffffffffffffffffffffffffffff167f17307eab39ab6107e8899845ad3d59bd9653f200f220920489ca2b5937696c318360405161175f9190612b1d565b60405180910390a3505050565b611777848484611272565b61178384848484611e90565b6117c2576040517f08c379a00000000000000000000000000000000000000000000000000000000081526004016117b990613d8f565b60405180910390fd5b50505050565b60606000820361180f576040518060400160405280600181526020017f30000000000000000000000000000000000000000000000000000000000000008152509050611923565b600082905060005b6000821461184157808061182a90613daf565b915050600a8261183a9190613e26565b9150611817565b60008167ffffffffffffffff81111561185d5761185c612e72565b5b6040519080825280601f01601f19166020018201604052801561188f5781602001600182028036833780820191505090505b5090505b6000851461191c576001826118a89190613c7d565b9150600a856118b79190613e57565b60306118c39190613a71565b60f81b8183815181106118d9576118d8613839565b5b60200101907effffffffffffffffffffffffffffffffffffffffffffffffffffffffffffff1916908160001a905350600a856119159190613e26565b9450611893565b8093505050505b919050565b600061193682600001612017565b9050919050565b600073ffffffffffffffffffffffffffffffffffffffff168273ffffffffffffffffffffffffffffffffffffffff16036119ac576040517f08c379a00000000000000000000000000000000000000000000000000000000081526004016119a390613ed4565b60405180910390fd5b6119b581611067565b156119f5576040517f08c379a00000000000000000000000000000000000000000000000000000000081526004016119ec90613f40565b60405180910390fd5b611a0160008383611b90565b6001600360008473ffffffffffffffffffffffffffffffffffffffff1673ffffffffffffffffffffffffffffffffffffffff1681526020019081526020016000206000828254611a519190613a71565b92505081905550816002600083815260200190815260200160002060006101000a81548173ffffffffffffffffffffffffffffffffffffffff021916908373ffffffffffffffffffffffffffffffffffffffff160217905550808273ffffffffffffffffffffffffffffffffffffffff16600073ffffffffffffffffffffffffffffffffffffffff167fddf252ad1be2c89b69c2b068fc378daa952ba7f163c4a11628f55a4df523b3ef60405160405180910390a4611b1260008383611ba0565b5050565b60007f7965db0b000000000000000000000000000000000000000000000000000000007bffffffffffffffffffffffffffffffffffffffffffffffffffffffff1916827bffffffffffffffffffffffffffffffffffffffffffffffffffffffff19161480611b895750611b8882612028565b5b9050919050565b611b9b8383836120a2565b505050565b505050565b611baf8282610cb9565b611c3e57611bd48173ffffffffffffffffffffffffffffffffffffffff1660146120fa565b611be28360001c60206120fa565b604051602001611bf3929190613ff8565b6040516020818303038152906040526040517f08c379a0000000000000000000000000000000000000000000000000000000008152600401611c359190612bd1565b60405180910390fd5b5050565b611c4c8282610cb9565b611d1f576001600b600084815260200190815260200160002060000160008373ffffffffffffffffffffffffffffffffffffffff1673ffffffffffffffffffffffffffffffffffffffff16815260200190815260200160002060006101000a81548160ff021916908315150217905550611cc46110d3565b73ffffffffffffffffffffffffffffffffffffffff168173ffffffffffffffffffffffffffffffffffffffff16837f2f8788117e7eff1d82e926ec794901d17c78024a50270940304540a733656f0d60405160405180910390a45b5050565b6000611d4b836000018373ffffffffffffffffffffffffffffffffffffffff1660001b612336565b905092915050565b611d5d8282610cb9565b15611e31576000600b600084815260200190815260200160002060000160008373ffffffffffffffffffffffffffffffffffffffff1673ffffffffffffffffffffffffffffffffffffffff16815260200190815260200160002060006101000a81548160ff021916908315150217905550611dd66110d3565b73ffffffffffffffffffffffffffffffffffffffff168173ffffffffffffffffffffffffffffffffffffffff16837ff6391f5c32d9c69d2a47ea670b442974b53935d1edc7fd64eb21e047a839171b60405160405180910390a45b5050565b6000611e5d836000018373ffffffffffffffffffffffffffffffffffffffff1660001b6123a6565b905092915050565b6000826000018281548110611e7d57611e7c613839565b5b9060005260206000200154905092915050565b6000611eb18473ffffffffffffffffffffffffffffffffffffffff166124ba565b1561200a578373ffffffffffffffffffffffffffffffffffffffff1663150b7a02611eda6110d3565b8786866040518563ffffffff1660e01b8152600401611efc9493929190614087565b6020604051808303816000875af1925050508015611f3857506040513d601f19601f82011682018060405250810190611f3591906140e8565b60015b611fba573d8060008114611f68576040519150601f19603f3d011682016040523d82523d6000602084013e611f6d565b606091505b506000815103611fb2576040517f08c379a0000000000000000000000000000000000000000000000000000000008152600401611fa990613d8f565b60405180910390fd5b805181602001fd5b63150b7a0260e01b7bffffffffffffffffffffffffffffffffffffffffffffffffffffffff1916817bffffffffffffffffffffffffffffffffffffffffffffffffffffffff19161491505061200f565b600190505b949350505050565b600081600001805490509050919050565b60007f780e9d63000000000000000000000000000000000000000000000000000000007bffffffffffffffffffffffffffffffffffffffffffffffffffffffff1916827bffffffffffffffffffffffffffffffffffffffffffffffffffffffff1916148061209b575061209a826124dd565b5b9050919050565b6120ad8383836125bf565b6120b5610b0b565b156120f5576040517f08c379a00000000000000000000000000000000000000000000000000000000081526004016120ec90614187565b60405180910390fd5b505050565b60606000600283600261210d91906141a7565b6121179190613a71565b67ffffffffffffffff8111156121305761212f612e72565b5b6040519080825280601f01601f1916602001820160405280156121625781602001600182028036833780820191505090505b5090507f30000000000000000000000000000000000000000000000000000000000000008160008151811061219a57612199613839565b5b60200101907effffffffffffffffffffffffffffffffffffffffffffffffffffffffffffff1916908160001a9053507f7800000000000000000000000000000000000000000000000000000000000000816001815181106121fe576121fd613839565b5b60200101907effffffffffffffffffffffffffffffffffffffffffffffffffffffffffffff1916908160001a9053506000600184600261223e91906141a7565b6122489190613a71565b90505b60018111156122e8577f3031323334353637383961626364656600000000000000000000000000000000600f86166010811061228a57612289613839565b5b1a60f81b8282815181106122a1576122a0613839565b5b60200101907effffffffffffffffffffffffffffffffffffffffffffffffffffffffffffff1916908160001a905350600485901c9450806122e190614201565b905061224b565b506000841461232c576040517f08c379a000000000000000000000000000000000000000000000000000000000815260040161232390614276565b60405180910390fd5b8091505092915050565b600061234283836126d1565b61239b5782600001829080600181540180825580915050600190039060005260206000200160009091909190915055826000018054905083600101600084815260200190815260200160002081905550600190506123a0565b600090505b92915050565b600080836001016000848152602001908152602001600020549050600081146124ae5760006001826123d89190613c7d565b90506000600186600001805490506123f09190613c7d565b905081811461245f57600086600001828154811061241157612410613839565b5b906000526020600020015490508087600001848154811061243557612434613839565b5b90600052602060002001819055508387600101600083815260200190815260200160002081905550505b8560000180548061247357612472614296565b5b6001900381819060005260206000200160009055905585600101600086815260200190815260200160002060009055600193505050506124b4565b60009150505b92915050565b6000808273ffffffffffffffffffffffffffffffffffffffff163b119050919050565b60007f80ac58cd000000000000000000000000000000000000000000000000000000007bffffffffffffffffffffffffffffffffffffffffffffffffffffffff1916827bffffffffffffffffffffffffffffffffffffffffffffffffffffffff191614806125a857507f5b5e139f000000000000000000000000000000000000000000000000000000007bffffffffffffffffffffffffffffffffffffffffffffffffffffffff1916827bffffffffffffffffffffffffffffffffffffffffffffffffffffffff1916145b806125b857506125b7826126f4565b5b9050919050565b6125ca83838361275e565b600073ffffffffffffffffffffffffffffffffffffffff168373ffffffffffffffffffffffffffffffffffffffff160361260c5761260781612763565b61264b565b8173ffffffffffffffffffffffffffffffffffffffff168373ffffffffffffffffffffffffffffffffffffffff161461264a5761264983826127ac565b5b5b600073ffffffffffffffffffffffffffffffffffffffff168273ffffffffffffffffffffffffffffffffffffffff160361268d5761268881612919565b6126cc565b8273ffffffffffffffffffffffffffffffffffffffff168273ffffffffffffffffffffffffffffffffffffffff16146126cb576126ca82826129ea565b5b5b505050565b600080836001016000848152602001908152602001600020541415905092915050565b60007f01ffc9a7000000000000000000000000000000000000000000000000000000007bffffffffffffffffffffffffffffffffffffffffffffffffffffffff1916827bffffffffffffffffffffffffffffffffffffffffffffffffffffffff1916149050919050565b505050565b6008805490506009600083815260200190815260200160002081905550600881908060018154018082558091505060019003906000526020600020016000909190919091505550565b600060016127b984610bd3565b6127c39190613c7d565b90506000600760008481526020019081526020016000205490508181146128a8576000600660008673ffffffffffffffffffffffffffffffffffffffff1673ffffffffffffffffffffffffffffffffffffffff168152602001908152602001600020600084815260200190815260200160002054905080600660008773ffffffffffffffffffffffffffffffffffffffff1673ffffffffffffffffffffffffffffffffffffffff168152602001908152602001600020600084815260200190815260200160002081905550816007600083815260200190815260200160002081905550505b6007600084815260200190815260200160002060009055600660008573ffffffffffffffffffffffffffffffffffffffff1673ffffffffffffffffffffffffffffffffffffffff16815260200190815260200160002060008381526020019081526020016000206000905550505050565b6000600160088054905061292d9190613c7d565b905060006009600084815260200190815260200160002054905060006008838154811061295d5761295c613839565b5b90600052602060002001549050806008838154811061297f5761297e613839565b5b9060005260206000200181905550816009600083815260200190815260200160002081905550600960008581526020019081526020016000206000905560088054806129ce576129cd614296565b5b6001900381819060005260206000200160009055905550505050565b60006129f583610bd3565b905081600660008573ffffffffffffffffffffffffffffffffffffffff1673ffffffffffffffffffffffffffffffffffffffff168152602001908152602001600020600083815260200190815260200160002081905550806007600084815260200190815260200160002081905550505050565b6000604051905090565b600080fd5b600080fd5b60007fffffffff0000000000000000000000000000000000000000000000000000000082169050919050565b612ab281612a7d565b8114612abd57600080fd5b50565b600081359050612acf81612aa9565b92915050565b600060208284031215612aeb57612aea612a73565b5b6000612af984828501612ac0565b91505092915050565b60008115159050919050565b612b1781612b02565b82525050565b6000602082019050612b326000830184612b0e565b92915050565b600081519050919050565b600082825260208201905092915050565b60005b83811015612b72578082015181840152602081019050612b57565b83811115612b81576000848401525b50505050565b6000601f19601f8301169050919050565b6000612ba382612b38565b612bad8185612b43565b9350612bbd818560208601612b54565b612bc681612b87565b840191505092915050565b60006020820190508181036000830152612beb8184612b98565b905092915050565b6000819050919050565b612c0681612bf3565b8114612c1157600080fd5b50565b600081359050612c2381612bfd565b92915050565b600060208284031215612c3f57612c3e612a73565b5b6000612c4d84828501612c14565b91505092915050565b600073ffffffffffffffffffffffffffffffffffffffff82169050919050565b6000612c8182612c56565b9050919050565b612c9181612c76565b82525050565b6000602082019050612cac6000830184612c88565b92915050565b612cbb81612c76565b8114612cc657600080fd5b50565b600081359050612cd881612cb2565b92915050565b60008060408385031215612cf557612cf4612a73565b5b6000612d0385828601612cc9565b9250506020612d1485828601612c14565b9150509250929050565b612d2781612bf3565b82525050565b6000602082019050612d426000830184612d1e565b92915050565b600080600060608486031215612d6157612d60612a73565b5b6000612d6f86828701612cc9565b9350506020612d8086828701612cc9565b9250506040612d9186828701612c14565b9150509250925092565b6000819050919050565b612dae81612d9b565b8114612db957600080fd5b50565b600081359050612dcb81612da5565b92915050565b600060208284031215612de757612de6612a73565b5b6000612df584828501612dbc565b91505092915050565b612e0781612d9b565b82525050565b6000602082019050612e226000830184612dfe565b92915050565b60008060408385031215612e3f57612e3e612a73565b5b6000612e4d85828601612dbc565b9250506020612e5e85828601612cc9565b9150509250929050565b600080fd5b600080fd5b7f4e487b7100000000000000000000000000000000000000000000000000000000600052604160045260246000fd5b612eaa82612b87565b810181811067ffffffffffffffff82111715612ec957612ec8612e72565b5b80604052505050565b6000612edc612a69565b9050612ee88282612ea1565b919050565b600067ffffffffffffffff821115612f0857612f07612e72565b5b612f1182612b87565b9050602081019050919050565b82818337600083830152505050565b6000612f40612f3b84612eed565b612ed2565b905082815260208101848484011115612f5c57612f5b612e6d565b5b612f67848285612f1e565b509392505050565b600082601f830112612f8457612f83612e68565b5b8135612f94848260208601612f2d565b91505092915050565b60008060408385031215612fb457612fb3612a73565b5b6000612fc285828601612c14565b925050602083013567ffffffffffffffff811115612fe357612fe2612a78565b5b612fef85828601612f6f565b9150509250929050565b60006020828403121561300f5761300e612a73565b5b600061301d84828501612cc9565b91505092915050565b6000806040838503121561303d5761303c612a73565b5b600061304b85828601612dbc565b925050602061305c85828601612c14565b9150509250929050565b61306f81612b02565b811461307a57600080fd5b50565b60008135905061308c81613066565b92915050565b600080604083850312156130a9576130a8612a73565b5b60006130b785828601612cc9565b92505060206130c88582860161307d565b9150509250929050565b600067ffffffffffffffff8211156130ed576130ec612e72565b5b6130f682612b87565b9050602081019050919050565b6000613116613111846130d2565b612ed2565b90508281526020810184848401111561313257613131612e6d565b5b61313d848285612f1e565b509392505050565b600082601f83011261315a57613159612e68565b5b813561316a848260208601613103565b91505092915050565b6000806000806080858703121561318d5761318c612a73565b5b600061319b87828801612cc9565b94505060206131ac87828801612cc9565b93505060406131bd87828801612c14565b925050606085013567ffffffffffffffff8111156131de576131dd612a78565b5b6131ea87828801613145565b91505092959194509250565b6000806040838503121561320d5761320c612a73565b5b600061321b85828601612cc9565b925050602061322c85828601612cc9565b9150509250929050565b6000806040838503121561324d5761324c612a73565b5b600061325b85828601612cc9565b925050602083013567ffffffffffffffff81111561327c5761327b612a78565b5b61328885828601612f6f565b9150509250929050565b7f4e487b7100000000000000000000000000000000000000000000000000000000600052602260045260246000fd5b600060028204905060018216806132d957607f821691505b6020821081036132ec576132eb613292565b5b50919050565b7f4552433732313a20617070726f76656420717565727920666f72206e6f6e657860008201527f697374656e7420746f6b656e0000000000000000000000000000000000000000602082015250565b600061334e602c83612b43565b9150613359826132f2565b604082019050919050565b6000602082019050818103600083015261337d81613341565b9050919050565b7f4552433732313a20617070726f76616c20746f2063757272656e74206f776e6560008201527f7200000000000000000000000000000000000000000000000000000000000000602082015250565b60006133e0602183612b43565b91506133eb82613384565b604082019050919050565b6000602082019050818103600083015261340f816133d3565b9050919050565b7f4552433732313a20617070726f76652063616c6c6572206973206e6f74206f7760008201527f6e6572206e6f7220617070726f76656420666f7220616c6c0000000000000000602082015250565b6000613472603883612b43565b915061347d82613416565b604082019050919050565b600060208201905081810360008301526134a181613465565b9050919050565b7f4552433732313a207472616e736665722063616c6c6572206973206e6f74206f60008201527f776e6572206e6f7220617070726f766564000000000000000000000000000000602082015250565b6000613504603183612b43565b915061350f826134a8565b604082019050919050565b60006020820190508181036000830152613533816134f7565b9050919050565b7f455243373231456e756d657261626c653a206f776e657220696e646578206f7560008201527f74206f6620626f756e6473000000000000000000000000000000000000000000602082015250565b6000613596602b83612b43565b91506135a18261353a565b604082019050919050565b600060208201905081810360008301526135c581613589565b9050919050565b7f416363657373436f6e74726f6c3a2063616e206f6e6c792072656e6f756e636560008201527f20726f6c657320666f722073656c660000000000000000000000000000000000602082015250565b6000613628602f83612b43565b9150613633826135cc565b604082019050919050565b600060208201905081810360008301526136578161361b565b9050919050565b7f4465616457616c6b6572576561706f6e3a2055524920717565727920666f722060008201527f6e6f6e6578697374656e7420746f6b656e000000000000000000000000000000602082015250565b60006136ba603183612b43565b91506136c58261365e565b604082019050919050565b600060208201905081810360008301526136e9816136ad565b9050919050565b600081905092915050565b600061370682612b38565b61371081856136f0565b9350613720818560208601612b54565b80840191505092915050565b7f2e6a736f6e000000000000000000000000000000000000000000000000000000600082015250565b60006137626005836136f0565b915061376d8261372c565b600582019050919050565b600061378482856136fb565b915061379082846136fb565b915061379b82613755565b91508190509392505050565b7f455243373231456e756d657261626c653a20676c6f62616c20696e646578206f60008201527f7574206f6620626f756e64730000000000000000000000000000000000000000602082015250565b6000613803602c83612b43565b915061380e826137a7565b604082019050919050565b60006020820190508181036000830152613832816137f6565b9050919050565b7f4e487b7100000000000000000000000000000000000000000000000000000000600052603260045260246000fd5b7f4552433732313a206f776e657220717565727920666f72206e6f6e657869737460008201527f656e7420746f6b656e0000000000000000000000000000000000000000000000602082015250565b60006138c4602983612b43565b91506138cf82613868565b604082019050919050565b600060208201905081810360008301526138f3816138b7565b9050919050565b7f4552433732313a2062616c616e636520717565727920666f7220746865207a6560008201527f726f206164647265737300000000000000000000000000000000000000000000602082015250565b6000613956602a83612b43565b9150613961826138fa565b604082019050919050565b6000602082019050818103600083015261398581613949565b9050919050565b7f4552433732314d657461646174613a2055524920717565727920666f72206e6f60008201527f6e6578697374656e7420746f6b656e0000000000000000000000000000000000602082015250565b60006139e8602f83612b43565b91506139f38261398c565b604082019050919050565b60006020820190508181036000830152613a17816139db565b9050919050565b6000613a2a82856136fb565b9150613a3682846136fb565b91508190509392505050565b7f4e487b7100000000000000000000000000000000000000000000000000000000600052601160045260246000fd5b6000613a7c82612bf3565b9150613a8783612bf3565b9250827fffffffffffffffffffffffffffffffffffffffffffffffffffffffffffffffff03821115613abc57613abb613a42565b5b828201905092915050565b7f4552433732313a206f70657261746f7220717565727920666f72206e6f6e657860008201527f697374656e7420746f6b656e0000000000000000000000000000000000000000602082015250565b6000613b23602c83612b43565b9150613b2e82613ac7565b604082019050919050565b60006020820190508181036000830152613b5281613b16565b9050919050565b7f4552433732313a207472616e736665722066726f6d20696e636f72726563742060008201527f6f776e6572000000000000000000000000000000000000000000000000000000602082015250565b6000613bb5602583612b43565b9150613bc082613b59565b604082019050919050565b60006020820190508181036000830152613be481613ba8565b9050919050565b7f4552433732313a207472616e7366657220746f20746865207a65726f2061646460008201527f7265737300000000000000000000000000000000000000000000000000000000602082015250565b6000613c47602483612b43565b9150613c5282613beb565b604082019050919050565b60006020820190508181036000830152613c7681613c3a565b9050919050565b6000613c8882612bf3565b9150613c9383612bf3565b925082821015613ca657613ca5613a42565b5b828203905092915050565b7f4552433732313a20617070726f766520746f2063616c6c657200000000000000600082015250565b6000613ce7601983612b43565b9150613cf282613cb1565b602082019050919050565b60006020820190508181036000830152613d1681613cda565b9050919050565b7f4552433732313a207472616e7366657220746f206e6f6e20455243373231526560008201527f63656976657220696d706c656d656e7465720000000000000000000000000000602082015250565b6000613d79603283612b43565b9150613d8482613d1d565b604082019050919050565b60006020820190508181036000830152613da881613d6c565b9050919050565b6000613dba82612bf3565b91507fffffffffffffffffffffffffffffffffffffffffffffffffffffffffffffffff8203613dec57613deb613a42565b5b600182019050919050565b7f4e487b7100000000000000000000000000000000000000000000000000000000600052601260045260246000fd5b6000613e3182612bf3565b9150613e3c83612bf3565b925082613e4c57613e4b613df7565b5b828204905092915050565b6000613e6282612bf3565b9150613e6d83612bf3565b925082613e7d57613e7c613df7565b5b828206905092915050565b7f4552433732313a206d696e7420746f20746865207a65726f2061646472657373600082015250565b6000613ebe602083612b43565b9150613ec982613e88565b602082019050919050565b60006020820190508181036000830152613eed81613eb1565b9050919050565b7f4552433732313a20746f6b656e20616c7265616479206d696e74656400000000600082015250565b6000613f2a601c83612b43565b9150613f3582613ef4565b602082019050919050565b60006020820190508181036000830152613f5981613f1d565b9050919050565b7f416363657373436f6e74726f6c3a206163636f756e7420000000000000000000600082015250565b6000613f966017836136f0565b9150613fa182613f60565b601782019050919050565b7f206973206d697373696e6720726f6c6520000000000000000000000000000000600082015250565b6000613fe26011836136f0565b9150613fed82613fac565b601182019050919050565b600061400382613f89565b915061400f82856136fb565b915061401a82613fd5565b915061402682846136fb565b91508190509392505050565b600081519050919050565b600082825260208201905092915050565b600061405982614032565b614063818561403d565b9350614073818560208601612b54565b61407c81612b87565b840191505092915050565b600060808201905061409c6000830187612c88565b6140a96020830186612c88565b6140b66040830185612d1e565b81810360608301526140c8818461404e565b905095945050505050565b6000815190506140e281612aa9565b92915050565b6000602082840312156140fe576140fd612a73565b5b600061410c848285016140d3565b91505092915050565b7f4552433732315061757361626c653a20746f6b656e207472616e73666572207760008201527f68696c6520706175736564000000000000000000000000000000000000000000602082015250565b6000614171602b83612b43565b915061417c82614115565b604082019050919050565b600060208201905081810360008301526141a081614164565b9050919050565b60006141b282612bf3565b91506141bd83612bf3565b9250817fffffffffffffffffffffffffffffffffffffffffffffffffffffffffffffffff04831182151516156141f6576141f5613a42565b5b828202905092915050565b600061420c82612bf3565b91506000820361421f5761421e613a42565b5b600182039050919050565b7f537472696e67733a20686578206c656e67746820696e73756666696369656e74600082015250565b6000614260602083612b43565b915061426b8261422a565b602082019050919050565b6000602082019050818103600083015261428f81614253565b9050919050565b7f4e487b7100000000000000000000000000000000000000000000000000000000600052603160045260246000fdfea26469706673582212206f4d812b4a8a01e3d72519c02fe5dbd7dda0e60ee8b44ab5660c01c2cf38421c64736f6c634300080d0033",
  "immutableReferences": {},
  "source": "pragma solidity ^0.8.13;\n\nimport \"@openzeppelin/contracts/token/ERC721/ERC721.sol\";\nimport \"@openzeppelin/contracts/token/ERC721/extensions/ERC721Enumerable.sol\";\nimport \"@openzeppelin/contracts/utils/Counters.sol\";\nimport \"@openzeppelin/contracts/access/AccessControlEnumerable.sol\";\nimport \"@openzeppelin/contracts/token/ERC721/extensions/ERC721Pausable.sol\";\n\n//import \"./ERC721/ERC721.sol\";\n//import \"./ERC721/ERC721Enumerable.sol\";\n\ncontract Gallery is ERC721, ERC721Enumerable, ERC721Pausable, AccessControlEnumerable {\n    event PhotoUploaded (uint indexed tokenId, bytes photo, string title, string location, string description, uint256 timestamp);\n\n    mapping(uint256 => PhotoData) private _photoList;\n\n    struct PhotoData {\n        uint256 tokenId;\n        address[] ownerHistory;\n        bytes photo;\n        string title;\n        string location;\n        string description;\n        uint256 timestamp;\n    }\n\n    string private _baseUri;\n\n    constructor(string memory tokenName, string memory symbol, string memory baseUri) ERC721(tokenName, symbol) {\n        _baseUri = baseUri;\n//        setBaseURI(baseURI)\n//        _setBaseUri(\"ipfs://\");\n    }\n\n    function tokenURI(uint256 tokenId, string memory metadataURI) public view returns (string memory) {\n        require(_exists(tokenId), \"DeadWalkerWeapon: URI query for nonexistent token\");\n\n        string memory baseURI = _baseURI();\n        return bytes(baseURI).length > 0 ? string(abi.encodePacked(baseURI, metadataURI, '.json')) : \"\";\n    }\n\n//    function uploadPhoto(bytes memory photo, string memory title, string memory location, string memory description) public {\n    function uploadPhoto(address owner, string memory metadataURI) public returns (uint256) {\n        uint256 tokenId = totalSupply() + 1;\n\n        _mint(msg.sender, tokenId);\n        tokenURI(tokenId, metadataURI);\n//        _setTokenURI(tokenId, metadataURI);\n//        address[] memory ownerHistory;\n//\n//        PhotoData memory newPhotoData = PhotoData({\n//        tokenId: tokenId,\n//        ownerHistory: ownerHistory,\n//        photo: photo,\n//        title: title,\n//        location: location,\n//        description: description,\n//        timestamp : now\n//        });\n//\n//        _photoList[tokenId] = newPhotoData;\n//        _photoList[tokenId].ownerHistory.push(msg.sender);\n//\n//        emit PhotoUploaded(tokenId, photo, title, location, description, now);\n\n        return tokenId;\n    }\n\n//    function transferOwnership(uint256 tokenId, address to) public returns(uint, address, address, address) {\n//        safeTransferFrom(msg.sender, to, tokenId);\n//        uint ownerHistoryLength = _photoList[tokenId].ownerHistory.length;\n//        return (\n//        _photoList[tokenId].tokenId,\n//        _photoList[tokenId].ownerHistory[0],\n//        _photoList[tokenId].ownerHistory[ownerHistoryLength-2],\n//        _photoList[tokenId].ownerHistory[ownerHistoryLength-1]);\n//    }\n//\n//    function transferFrom(address from, address to, uint256 tokenId) public {\n//        super.transferFrom(from, to, tokenId);\n//        _photoList[tokenId].ownerHistory.push(to);\n//    }\n//\n//    function getTotalPhotoCount () public view returns (uint) {\n//        return totalSupply();\n//    }\n//\n//    function getPhoto(uint tokenId) public view returns(uint256, address[] memory, bytes memory, string memory, string memory, string memory, uint256) {\n//        require(_photoList[tokenId].tokenId != 0, \"Photo does not exist\");\n//        return (\n//            _photoList[tokenId].tokenId,\n//            _photoList[tokenId].ownerHistory,\n//            _photoList[tokenId].photo,\n//            _photoList[tokenId].title,\n//            _photoList[tokenId].location,\n//            _photoList[tokenId].description,\n//            _photoList[tokenId].timestamp);\n//    }\n\n    function _baseURI() internal view override returns (string memory) {\n        return _baseUri;\n    }\n\n    function _beforeTokenTransfer(\n        address from,\n        address to,\n        uint256 tokenId\n    ) internal override(ERC721, ERC721Enumerable, ERC721Pausable) {\n        super._beforeTokenTransfer(from, to, tokenId);\n    }\n\n    function supportsInterface(bytes4 interfaceId)\n    public\n    view\n    override(AccessControlEnumerable, ERC721, ERC721Enumerable)\n    returns (bool)\n    {\n        return super.supportsInterface(interfaceId);\n    }\n}",
  "sourcePath": "/Users/ellerhew/Desktop/coding/personal/gallery/contracts/Gallery.sol",
  "compiler": {
    "name": "solc",
    "version": "0.8.13+commit.abaa5c0e.Emscripten.clang"
  },
  "schemaVersion": "3.4.7",
  "updatedAt": "2022-06-24T05:54:45.590Z",
  "networkType": "ethereum",
  "devdoc": {
    "kind": "dev",
    "methods": {
      "approve(address,uint256)": {
        "details": "See {IERC721-approve}."
      },
      "balanceOf(address)": {
        "details": "See {IERC721-balanceOf}."
      },
      "getApproved(uint256)": {
        "details": "See {IERC721-getApproved}."
      },
      "getRoleAdmin(bytes32)": {
        "details": "Returns the admin role that controls `role`. See {grantRole} and {revokeRole}. To change a role's admin, use {_setRoleAdmin}."
      },
      "getRoleMember(bytes32,uint256)": {
        "details": "Returns one of the accounts that have `role`. `index` must be a value between 0 and {getRoleMemberCount}, non-inclusive. Role bearers are not sorted in any particular way, and their ordering may change at any point. WARNING: When using {getRoleMember} and {getRoleMemberCount}, make sure you perform all queries on the same block. See the following https://forum.openzeppelin.com/t/iterating-over-elements-on-enumerableset-in-openzeppelin-contracts/2296[forum post] for more information."
      },
      "getRoleMemberCount(bytes32)": {
        "details": "Returns the number of accounts that have `role`. Can be used together with {getRoleMember} to enumerate all bearers of a role."
      },
      "grantRole(bytes32,address)": {
        "details": "Grants `role` to `account`. If `account` had not been already granted `role`, emits a {RoleGranted} event. Requirements: - the caller must have ``role``'s admin role."
      },
      "hasRole(bytes32,address)": {
        "details": "Returns `true` if `account` has been granted `role`."
      },
      "isApprovedForAll(address,address)": {
        "details": "See {IERC721-isApprovedForAll}."
      },
      "name()": {
        "details": "See {IERC721Metadata-name}."
      },
      "ownerOf(uint256)": {
        "details": "See {IERC721-ownerOf}."
      },
      "paused()": {
        "details": "Returns true if the contract is paused, and false otherwise."
      },
      "renounceRole(bytes32,address)": {
        "details": "Revokes `role` from the calling account. Roles are often managed via {grantRole} and {revokeRole}: this function's purpose is to provide a mechanism for accounts to lose their privileges if they are compromised (such as when a trusted device is misplaced). If the calling account had been revoked `role`, emits a {RoleRevoked} event. Requirements: - the caller must be `account`."
      },
      "revokeRole(bytes32,address)": {
        "details": "Revokes `role` from `account`. If `account` had been granted `role`, emits a {RoleRevoked} event. Requirements: - the caller must have ``role``'s admin role."
      },
      "safeTransferFrom(address,address,uint256)": {
        "details": "See {IERC721-safeTransferFrom}."
      },
      "safeTransferFrom(address,address,uint256,bytes)": {
        "details": "See {IERC721-safeTransferFrom}."
      },
      "setApprovalForAll(address,bool)": {
        "details": "See {IERC721-setApprovalForAll}."
      },
      "symbol()": {
        "details": "See {IERC721Metadata-symbol}."
      },
      "tokenByIndex(uint256)": {
        "details": "See {IERC721Enumerable-tokenByIndex}."
      },
      "tokenOfOwnerByIndex(address,uint256)": {
        "details": "See {IERC721Enumerable-tokenOfOwnerByIndex}."
      },
      "tokenURI(uint256)": {
        "details": "See {IERC721Metadata-tokenURI}."
      },
      "totalSupply()": {
        "details": "See {IERC721Enumerable-totalSupply}."
      },
      "transferFrom(address,address,uint256)": {
        "details": "See {IERC721-transferFrom}."
      }
    },
    "version": 1
  },
  "userdoc": {
    "kind": "user",
    "methods": {},
    "version": 1
  }
}